:020000040100F9
:10000000505E0021596D0001C72801012D6D0001CE
:100010002D6D00012D6D00012D6D0001000000000F
:10002000000000000000000000000000A16A0001C4
:100030002D6D000100000000496A00012D6D0001D6
:10004000216B0001216B0001216B0001216B00017C
:10005000216B0001216B0001216B0001216B00016C
:10006000532D0101216B0001216B0001216B000167
:10007000092D0101216B0001216B0001216B0001A1
:10008000216B00013D2D0101216B0001216B00015D
:10009000216B0001216B0001216B0001216B00012C
:1000A000216B0001216B0001216B0001216B00011C
:1000B000216B0001216B00017BB972B90029BEBF21
:1000C00000204FF0004106E008BF00281CBF6FF081
:1000D00000414FF0FF3000F057B8ADF1080C6DE96A
:1000E00004CE002909DB002B1ADB05F06BF8DDF8E4
:1000F00004E0DDE9022304B07047404261EB4101B6
:10010000002B1BDB05F05EF8DDF804E0DDE90223DF
:1001100004B0404261EB4101524263EB430370473C
:10012000524263EB430305F04DF8DDF804E0DDE9EE
:10013000022304B0404261EB41017047524263EB3D
:10014000430305F03FF8DDF804E0DDE9022304B0E5
:10015000524263EB4303704753B94AB9002908BFC1
:1001600000281CBF4FF0FF314FF0FF3000F00CB8FB
:10017000ADF1080C6DE904CE05F024F8DDF804E0DB
:10018000DDE9022304B07047704700BF042810B5B2
:1001900011D883B104280CBF10242824A1420AD20C
:1001A000064C54F8200018B141568A42A8BF0A46AE
:1001B00000201A7010BD6FF01500FBE760020021EF
:1001C0000228034610DC10F1270F0FDB2830084A05
:1001D00040B2105C024492F92C209A4207D00029C8
:1001E00018BF0130C0B270470F2070470020704721
:1001F00074560101022808B506DCFFF7E1FF034B46
:10020000034493F92C0008BD0320FCE77456010158
:10021000014B1879704700BF7C020021044B1A790A
:10022000824283BF1B68302202FB003000207047EF
:100230007C0200212DE9F041154682B08846074630
:100240000DF1030201A9284601F0EAFF02F060FD6A
:1002500002F012F81F4B93F83220202A06D0D868FB
:10026000073020F07F4002B0BDE8F081064607F17C
:100270000B0465B9B8F1000F04D10198B04201D266
:10028000301A044424F07F4002B0BDE8F08103F04E
:100290000BF90028EED102F0D1FE40F2563398421D
:1002A0000CD040F2F55398420ED0B0F5C67FE1D1A4
:1002B00007F11804B8F1000FE4D1DEE707F12704D5
:1002C000B8F1000FDED1D8E707F13D04B8F1000F17
:1002D000D8D1D2E78402002110B51D4C94F83130FA
:1002E00003EB4301214491F82020202A2BD0DBB2DC
:1002F00002EB431304EB430393F8390081F8200029
:10030000C2EBC2014FF0FF0C002004EB810184F826
:1003100029C04FF0020C84F8322091F8D02084F8E4
:10032000280083F838C0A07732B1D4F838344BB104
:100330000020BDE81040184703F0F8FCD4F838342A
:10034000002BF5D110BD40F23231702003F06AF974
:10035000840200212DE9F84F3D4E96F831B00BEBA9
:100360004B03334493F82140202C58D05FFA8BF58F
:10037000DFF8E0804FEA4B0BDFF8DC9004EB45132D
:100380006F0106EB430393F83830013B052B59D836
:10039000DFE803F00358584B4E034FF0070AB8F15B
:1003A000000F01D0AFF30080EFF3108272B65D440E
:1003B0003B19354406EB430395F8221093F8393086
:1003C000A14285F821302CD02AB9B9F1000F01D013
:1003D000AFF3008062B63B1906EB430393F8382075
:1003E0004AB3062A27D0032A25D0052A23D0012282
:1003F00083F83820C4EBC404514606EB8404D4E9E6
:100400002E30984796F831B00BEB4B035FFA8BF523
:1004100033444FEA4B0B93F82140202CAED1BDE87A
:10042000F88F202385F82230CEE74FF0020AB6E796
:100430004FF0030AB3E72744012306EB470787F889
:100440003830D7E740F6DD01702003F0EBF800BF4D
:100450008402002100000000000000002DE9F04FA0
:10046000914685B00E469A4601F006FF81443168F8
:1004700029F07F43CA1A02931202FF2A00F3DA809E
:10048000724D0AEB4A0340F25638EB180393039B74
:1004900093F82040202C54D040F2F55BC4EBC4000C
:1004A0000191E70005EB8000D0F8C4208A1A1202FF
:1004B000FF321CDBF289002A59D0B0F8CE20002A86
:1004C00055D1D0F8C09002F0B9FD404501997BD0DC
:1004D000584575D0B0F5C67F14BF01200E20A1EBA2
:1004E0000901090248BFFF31B0EB212F3FDD40F287
:1004F000F559381B726805EB8000D0F8C0B0ABEB43
:1005000002021202FF3220DBB0F8CE20CAB1F2891B
:10051000BAB93268019202F091FD4045019A51D07A
:1005200048454BD0B0F5C67F14BF01200E20ABEB81
:10053000020B5FEA0B2B48BF0BF1FF0BB0EB2B2F2D
:1005400003DC012005B0BDE8F08F3A1B307C05EBE1
:10055000820292F8D0C0844513D904EB4A1405EB0B
:10056000440494F83940202CEBD0E700C1E704EBB9
:100570004A1405EB440494F83940202CE1D031684A
:100580008CE7B2F8CE10D2F8C4B009B9F189E9B954
:10059000029BABEB03021202FF2A4BDC306883455F
:1005A00002D2B1680131B16072682BF07F41121A3A
:1005B00031605A4422F07F42726068E73320B6E728
:1005C00033208CE71D20B2E71D2088E7D2F8C090C9
:1005D00002F034FD404533D040F2F55188422DD031
:1005E000B0F5C67F14BF01210E21ABEB0902120248
:1005F00048BFFF32B1EB222FCADD02F01FFD40459C
:1006000022D040F2F55290421CD0B0F5C67F14BF04
:1006100000210D213A1B029B05EB8202D2F8C0207B
:1006200002F1010B8B442BF07F4BABEB0302120268
:10063000FF2AB3DD002005B0BDE8F08F3321D4E7F9
:100640001D21D2E73221E5E71C21E3E784020021E6
:100650002DE9F041394D00EB400306464FEA4008D2
:10066000AA7F2B44002A93F8204014BF00270227BA
:1006700002F064F82022710105E09EF8393022462C
:10068000202B1C4655D0C4EBC40301EB040E05EB34
:10069000830305EB4E0ED3E9303CACEB000C1B1A88
:1006A0002CF07F4C23F07F43BCF5000FE5D89F4230
:1006B00098BFB3F5000FE0D8202A02D12046BDE84C
:1006C000F08108EB060302EB461170014FF0040CB9
:1006D0002B4405EB410193F820E091F83910744662
:1006E00083F8201003192146274605EB43038A426D
:1006F00093F8394083F838C0F4D108EB06032B4453
:1007000093F822C0BCF1200F5FFA8CF213D00244A0
:1007100005EB420282F839E001444644202320469A
:1007200005EB4101354481F8393085F82270BDE888
:10073000F0811C46C0E783F821E0EDE78402002148
:100740002DE9F043476814460D4606469846488909
:100750000B8983B00978976000222261E2602082D1
:10076000A174E3813068C4E9002201F04BFD2B78CD
:10077000FBB9DFF87CC15F4AA7FB0C71C319D5E94F
:1007800004E841F100019A1841F10000964578EB28
:10079000000203D29E4578EB01034CD23368013B43
:1007A00023F07F4303F57A72C4E9003203B0BDE859
:1007B000F083E38904F10C024F4821466F68C01AA8
:1007C00094F8119001F02CFD236823F07F432360FF
:1007D000B9F1000F52D0B9F1010F7ED107F15F00DE
:1007E00001F04AFD20F07F40E2890021606030681E
:1007F000FFF720FDD4E9002320609B1A32680344F0
:10080000824223F07F43636002D9A3680133A3606F
:10081000434628692146FFF721FE0028C6D13368E8
:10082000D4E900122360521A134423F07F4363601B
:1008300003B0BDE8F083AEEB07072F4B9F4225D8EE
:10084000E389B84601336D68667C04F10C02B8EBAD
:1008500003033FD4184621462F4401F0E1FC2368EE
:1008600023F07F43236066B907F17B0001F004FDAC
:1008700020F07F40606003B0BDE8F08307F17B00AB
:10088000AEE7012E29D107F15F00EFE7A7EB0C06D9
:10089000E0899E426FEA0000B046304422D8984278
:1008A00015DC002800DA60440DF1030201A901F013
:1008B000B7FC9DF80320E389D243D21A17440E4AAD
:1008C000974202D9A2680132A2603746BAE7A0EB8C
:1008D0000C00E9E706481844BDE740F23961702092
:1008E00002F0A0FE40F29E51702002F09BFE00BF7D
:1008F0000080841E0040420FFF7F841E2DE9F04FD0
:10090000174697B0BA4C0546C7EBC707069101F0EA
:1009100007FF824602F0FCF9D4F83C24BB0004F146
:10092000B80106460120083304EB870710600DF17B
:10093000400CCA1851F80390C0370396536892F8D8
:100940000CB0B2F80E800893CDF824B00FCFACE80D
:100950000F003B684846CCF8003001F053FC08F12A
:100960000103A44A5B449042034400F26282934232
:1009700000F32D81002BC0F200810593237F0193AA
:10098000637F079302F090FD0490B8F1000F40F0F0
:10099000B780CDF8008002F051FB40F25633984208
:1009A00000F0C08040F2F553984200F01A81B0F593
:1009B000C67F00F00F8103274FF0000B3B46CDF8B8
:1009C00008B0464500F2B78000994A460020002949
:1009D00040F0D080019B002B00F0268102260527E5
:1009E000B4463B46BAF1807F13D0A9EB0A01090255
:1009F000FF290EDD009B002B00F0C38094F83030FF
:100A0000002B00F0BE80019F3B46002F40F09E81EE
:100A1000554622F07F4C0CF1FF3626F07F46711BC5
:100A2000090248BFFF31B7EB212F00F3B680002841
:100A300018BFE146E36A5A1C0CD0049A52B9ACEBD9
:100A4000030C5FEA0C2C48BF0CF1FF0CBBEB2C2F06
:100A500000F39A8001F072FE301A000248BFFF30A6
:100A6000051202F0EBFA40F25633984200F0FA8099
:100A700040F2F553984200F0E680B0F5C67F14BF0F
:100A80000B2318239D4280F2E280069B012B00F08D
:100A9000D080009B03F00105BAF1807F08BF45F0CC
:100AA0000105002D00F0E0800025304601F068FCD3
:100AB000A9EB060323F07F43013BB3F5000F67D298
:100AC000089B9B1B23F07F43B3F5000F60D8304693
:100AD00001F098FB059A484BA2EB000A9A45C0F03A
:100AE000D280801A9842C0F07781424B9A4500F23A
:100AF000C680984240F2A781404F3F1ABA46C3E0F1
:100B0000E26A0346B2F1FF3F18BF43F0010383F0EE
:100B10000103DBB2009302F091FA40F2563398429F
:100B20007FF440AF1F274FF01C0B46453B46CDF8E6
:100B300008B07FF649AF059901362E4A8E1B9142C7
:100B400000F27781964200F38A80002E78DB3046EF
:100B50000DF133020DA90A9301F062FB0D98009983
:100B6000A9EB00000A9B20F07F40A9EB00020029BE
:100B70003FF430AF5E46DC4634E7214A1344059328
:100B8000FCE66346374643E7B8F1000F3FF462AF37
:100B90000025284617B0BDE8F08F00283AD0079905
:100BA00081B3009A12B9019A02B19F1E0023CC466C
:100BB000019303930CF1FF3626F07F46751B2D023F
:100BC00048BFFF35B7EB252F7FF734AFE0E70B4A7F
:100BD0001344D2E610274FF00D0B3B46CDF808B07A
:100BE000EFE635274FF0320B3B46CDF808B0E8E68C
:100BF00084020021FF7F841E0040420F00807BE1C1
:100C00000080841ECDE90A2302F092F8DDE90A2370
:100C10000028C6D0009929B9019818B19F1E9446A2
:100C20000191C7E79446C5E703279C461E463B460D
:100C3000D8E6BAF1807F00F001815646002537E7FB
:100C40008D48304484E73D239D42FFF61EAFB8F146
:100C50000005304618BF012501F092FB28E78748C0
:100C6000304475E727230DE7AAEB06031B02B3F513
:100C7000A06F80F2CC80FF2B8ADC564618E70AF181
:100C8000F45A0AF5902A5746A37F3BB9039B434584
:100C900038BF43461E33BB4280F2A480069B012B23
:100CA00005D0022001F0FCFD012001F0F9FD039BBD
:100CB00098454FD300F29B8058EA030040F0D28061
:100CC000514601F063FD002838D094F83030002BF5
:100CD0005AD1E36A013340F09E80002D6BD1A7EB1F
:100CE00008011939002940F3B380032001F04EFDBB
:100CF0000546002800F0BB80099B0EAED4F83C24CA
:100D00008DF84C30019BADF84E808DF85430079B28
:100D10005B4C8DF85530089BCDF840901193002323
:100D200013608DF856300E934FF0FF330F930FCEB4
:100D30000FC496E80F0084E80F002AE70220002580
:100D400001F0AEFD012001F0ABFD22E70223554684
:100D50001F465EE6AAEB0301022001F017FDB8F181
:100D6000000F06D00028E9D0AAEB0801012001F00D
:100D70000DFD0028E2D05146002001F007FD0028BB
:100D8000DCD0B8F1000FA0D06DB9E36A01334AD0CE
:100D900094F83030002BA2D0052001F081FD002313
:100DA00084F830309BE7E36A013304D002F0BCF9E9
:100DB0004FF0FF33E362029B0520F11A21F07F41DF
:100DC00001F0E4FC002848D094F83030002B86D1A4
:100DD000012384F8303082E74742A37FBA46002BD4
:100DE0007FF45CAF40F64521702002F01BFCAAEBBB
:100DF0000801012001F0CAFC039B002BB9D0002898
:100E00009CD0AAEB0301022001F0C0FCB1E7304600
:100E100001F0B6FA4CE602F087F94FF0FF33E362D7
:100E2000002DB5D0C7E702F00FF901F087FCE062B2
:100E3000AEE740F29E51702002F0F4FB40F6131131
:100E4000702002F0EFFB40F60531702002F0EAFB63
:100E500040F66E21702002F0E5FB4FF43E717020E9
:100E600002F0E0FB40F67611702002F0DBFB40F66A
:100E70007621702002F0D6FB0080841E00807BE18A
:100E8000840200212DE9F04101EB4103434D0C4662
:100E900080462B444F0093F82060202E31D1404BE8
:100EA0000BB1AFF3008001F049FC95F83330202BF3
:100EB00006D0AB68C3F1020303441B02FF2B25DC01
:100EC000202E09D041463246FFF718FD88B3022094
:100ED00085F83360BDE8F081EB6A013319D195F8EC
:100EE0003030FBB9042001F0DBFC01F061FD202172
:100EF000D5F83C34002285F8331001201A60BDE893
:100F0000F0810846FFF7A4FB8642C8D00020BDE868
:100F1000F08102F009F94FF0FF33EB6295F83030C1
:100F2000002BDFD0052001F0BBFC002385F830301A
:100F3000D8E73B1906EB4412610104202B4405EB72
:100F4000420293F820C092F8392083F820206346AB
:100F50001A46CB18964205EB430383F8380093F802
:100F60003930F5D13B192B4493F82260202EF0B292
:100F700011D0084405EB400080F839C03C441144CE
:100F80002023002005EB4101254481F8393085F804
:100F90002220BDE8F08183F821C0EFE78402002120
:100FA00000000000002242F220014FF0FF3038B56F
:100FB000194C2023226084F82230218484F83120C7
:100FC000606084F83230A27784F8262084F83330C9
:100FD00004F13801134684F82720A283E06284F8E4
:100FE000302001F813200133202BFAD101F088FEC4
:100FF0000125FF23094884F8285084F8403402F082
:101000008FFB84F8410402F0EBFBC4F83C0401F0D0
:101010004DF984F8345038BD840200215503000195
:101020002DE9F04FCB4C85B001F088FB019001F029
:10103000BFFC6368013302D04FF0FF336360A37FCE
:10104000002B00F01781637E23B194F82730002B2A
:1010500040F00A81019BD81C20F07F4001F090F9FC
:1010600094F82830002B40F0A28194F8322001211E
:10107000202A84F8281000F0958194F832A02022CC
:1010800084F826305FFA8AFA84F8322084F8332014
:1010900084F82730236001F041FE94F83170207706
:1010A00007EB47035FFA87F823447F0093F820B0EB
:1010B000BBF1200F0AD0CBEBCB024FEACB0504EB00
:1010C000820292F8D210012900F00A8107EB08068B
:1010D000BBF1200FDFF880924FEA4815264409D073
:1010E0004046FFF7B5FA834504D096F820B0BBF12F
:1010F000200FF5D1B9F1000F01D0AFF3008001F05E
:101100001DFB94F83320202A06D0A268C2F1020207
:1011100002441202FF2AE8DCBBF1200F37D05A4606
:101120000121FFF7EBFB00286ED005EB0A03022636
:1011300084F833B004EB430393F83820022A47D0F5
:101140004744FF22274484F8292097F82130202B98
:1011500003D094F8410402F0FFFA237F002B40F003
:10116000B180022E0BD1019BA068C01A01F04AF891
:10117000D4F8383443B105B0BDE8F04F1847D4F87F
:101180003834002B40F0A38005B0BDE8F08FE36A4F
:10119000013304D001F0C8FF4FF0FF33E36294F84D
:1011A0003030002B59D10420012601F079FB01F0E9
:1011B000FFFB2022D4F83C3484F8332000221A604C
:1011C00005EB0A0304EB430393F83820022AB7D156
:1011D00007EB08020621224483F8381092F8221007
:1011E0002029CBB279D02B4404EB430383F839A0F8
:1011F00007EB08035544234404EB450583F822A07C
:10120000202385F839309BE705EB0B0296F820C0C8
:10121000042004EB420292F8392086F8202062462E
:101220001146AA188B4504EB420282F8380092F866
:101230003920F5D196F82220202AD3B217D02B449A
:1012400004EB430383F839C086F822102944202395
:1012500004EB410181F8393047E7052001F020FB1C
:10126000002384F830309EE701F0C4F9F8E686F8F0
:1012700021C0E9E7D4E902304FF40C71C01A20F024
:101280007F4001F0C7FEE368019A0344D31A1B02B2
:10129000FF33FFF6D8AE94F83230082194F83220AC
:1012A000C3EBC303C2EBC20204EB820204EB830470
:1012B000D2F8BC00D4F8B830984740F2DD31702045
:1012C00002F0B0F901F008FD0023A38349E74FF0D5
:1012D000FF3005B0BDE8F04F184782F821A087E73E
:1012E000B2F8CE6003A90DF10B02304600F098FF72
:1012F00001F00EFD00F0C0FF94F83220202A2DD01E
:10130000E268073222F07F42A5EB0B0104EB81017A
:10131000D1F8C060901B0002FF280FDC964213D367
:10132000A5EB0B0304EB8303D3F8C410C3F8C02070
:10133000891B0A4422F07F42C3F8C42007EB08034C
:10134000234493F820B0C1E6D1F8C8000138C1F8B1
:10135000C800E5E78402002100000000019B03F1C2
:101360000B0916B929F07F42CEE702F09DF800285C
:10137000F8D101F063FE40F2563188420AD040F2C3
:10138000F55188420AD0B0F5C67FEBD1019B03F13D
:101390001809E7E7019B03F12709E3E7019B03F144
:1013A0003D09DFE74FF47E71702002F03BF940F217
:1013B000F531702002F036F938B50C46054601F0DB
:1013C00071FF124991F8313001F1380C5FFA83FE58
:1013D0000CEB831C002302E00133202B14D01CF8FB
:1013E0001320D8B2002AF7D103EB4E1E0122C3EB23
:1013F000C30301EB4E0E01EB83038EF83820C3F8D4
:10140000B850C3F8BC4038BD184638BD840200212E
:10141000B44A53682DE9F04FC3F3080395B0029026
:101420000691002B40F0A28208230593069B1B78AF
:10143000012B00F29683DFF8B0B2DFF8B0A2BAF168
:10144000000F04D0002140F23E70AFF30080029BF9
:1014500000250126C3EBC3039B000993BAF1000FDB
:1014600004D0002140F24970AFF3008026B9A04BB0
:101470000BB1AFF3008062B69BF831305FFA83F8AE
:101480004FF0000E059B8BF829E0002B40F01F82E7
:10149000CDF80C80BAF1000F04D0002140F25D704D
:1014A000AFF300800AA80DAC01F04EF90AA943463B
:1014B0000FAA03C984E8030006992046FFF740F904
:1014C000BAF1000F04D0002140F26470AFF3008045
:1014D000DDE9022302EB43115E010BEB410191F8C0
:1014E0003830013B012B00F2F9800D9BDDF83C9078
:1014F000109A8048D21AA9EB0303184023F07F43C7
:1015000022F07F42003818BF0120B3F5000F88BFDA
:101510000020B2F5000F8CBF002000F00100049005
:10152000002840F0EB800398042200EB400381F890
:10153000382042005B44089293F822102029CAB256
:1015400000F06B823244029B0BEB420282F839308E
:101550000246089B00251344029A5B44164483F814
:1015600022200BEB4606202386F839300123049312
:10157000BAF1000F04D0002140F26970AFF300808F
:101580005D4B0BB1AFF30080EFF310873E4672B6B0
:10159000BAF1000F04D0002140F26F70AFF3008069
:1015A0009BF82940002C7FF459AFBAF1000F04D00A
:1015B000214640F27770AFF30080099B0DF13C0E9D
:1015C0000BEB030CBEE80F000CF1C00CACE80F00F5
:1015D000DEF80030CCF80030049B002B00F0928243
:1015E000BAF1000F04D0002140F28470AFF3008004
:1015F000059B002B00F09082D5B19BF83230202B58
:1016000016D1BAF1000F04D0002140F28970AFF377
:10161000008041460220FFF735FC002840F08E8212
:10162000069B1978002900F03E82012900F0948180
:10163000BAF1000F04D0002140F2A670AFF3008091
:101640009BF83130DB4303F001038BF83130FF238B
:101650008BF82930BAF1000F04D0002140F2B770A6
:10166000AFF30080022C00F0CB81012C05D1DBF818
:10167000383413B14FF0FF30984727B91C4B0BB1EA
:10168000AFF3008062B6BAF1000F04D0002140F23F
:10169000C770AFF30080049BA3B19BF8313003EB1C
:1016A00043035B4493F82130202B0BD0BAF1000F99
:1016B00004D0002140F2CE70AFF300809BF84104CB
:1016C00002F04AF8BAF1000F04D0002140F2D370C2
:1016D000AFF30080049815B0BDE8F08F00230493A9
:1016E00046E700BF00ED00E084020021000000009A
:1016F00000000000FEFFFF0000000000039A02EB64
:1017000042035B4493F820405300202C089300F0E0
:10171000AA8120234F460193C4EBC402E5000BEBE2
:101720008202D2F8C430FB1A1B02FF3325DBBDF85E
:101730004A30002B00F0BF80B2F8CE30002B40F0D2
:10174000BA80D2F8C09001F079FC40F2563398424A
:1017500000F02F8140F2F553984200F02681B0F559
:10176000C67F14BF01220E22A7EB09073F0248BF24
:10177000FF37B2EB272F40F39E80DDF80490281B43
:1017800010990BEB8000D0F8C070791A0902FF3174
:101790007CDBB0F8CE1019B1BDF84A1000295AD040
:1017A000019B994500F05781B9F1200F00F0D481D9
:1017B000019B202B06EB09030BEB430393F8392025
:1017C00000F03481019BF3180BEB430393F839507D
:1017D00083F839202946052473180A4608460BEB7E
:1017E0004303914593F8391083F83840F4D1039CB2
:1017F000089B23445B4493F82270202FFCB200F036
:101800004F8134440BEB440484F83950089B324434
:10181000039C0BEB420223445B4483F8220020200C
:10182000029B82F83900F3180BEB430383F839105D
:10183000019B834200F01D811C463444029B00251D
:101840000BEB440484F839301E4403230BEB4606AB
:1018500086F838308CE60F99079101F0EFFB40F2E3
:101860005632079940F2F553904200F0A08098421A
:1018700000F09980B0F5C67F14BF01200E207F1ABA
:101880003F0248BFFF37B0EB272F89DD2D1B9DF8A6
:101890004C100BEB850595F8D000884240F28B8008
:1018A0003119A1460BEB410191F83940202C00F091
:1018B000CE80E50063E733190BEB430393F839302F
:1018C000202B00F0E18001941C460F9F24E7AA4CD6
:1018D00008F1010704EB881C07F00107BCE80F00C2
:1018E00004EB871403970FC4BCE80F000FC4BCE8D7
:1018F0000F000FC49CE80F0084E80F00BAF1000F3E
:1019000004D0714640F25E50AFF3008008EB48020D
:1019100007EB4703203220333BF802100BEB0200A9
:1019200082782BF803105B449A70BAF1000F0CD048
:10193000002140F26250AFF30080BAF1000F04D0F2
:10194000002140F25370AFF300809BF82930002B48
:101950007FF484ADB8469DE5BAF1000F3FF486AD43
:10196000014640F29C70AFF3008077E5103B59B21E
:10197000002964DB814B5B5C5B090593002B7FF4E2
:1019800055ADDFF8FCB19BF83230202B00F0EE8033
:10199000069B1B780593002B3FF44FAD40F2377147
:1019A000702001F03FFE332069E73322DCE61D2082
:1019B00065E71D22D8E6039A0420089B1344029A87
:1019C0005B44B21893F822100BEB4202202982F8F4
:1019D0003800CAB226D03244029B0BEB420282F896
:1019E0003930039A0025089B1344029A5B4416443D
:1019F00083F822200BEB4606202386F83930B7E522
:101A00000D9BDBF80800C01A00F0FCFBDBF8383453
:101A1000002B3FF432AE98472FE6029A83F821203C
:101A2000024696E5029A83F82120DAE7089B03999B
:101A30000B445B4493F8205083F82020CAE603F05F
:101A40000F03043B13441B7E5B09059396E7019B40
:101A500099457FF4ADAE202B15D1089B039A134412
:101A60005B4493F82040029BF3180BEB430383F88D
:101A70003940039A089B049D1344029A5B4483F8FF
:101A800020201346E0E61C46029B3219F3180BEBAC
:101A900042020BEB430392F8392083F83920CCE65D
:101AA00083F82150B2E6BAF1000F03D040F29170F2
:101AB000AFF300809BF831300420DDF808C003EB61
:101AC00043010CEB43125944DEB20BEB420291F896
:101AD000224082F838005A01202C4FEA4303E0B23A
:101AE00036D011180BEB410181F839C061463344FF
:101AF0000A4404955B440BEB420283F82210202336
:101B000082F83930BAF1000F3FF4B7AD002140F24E
:101B1000B770AFF30080B0E5BAF1000F14D01946EA
:101B200040F2A6701C46AFF30080FF23214640F22E
:101B3000B7708BF82930AFF300809EE50446BAF108
:101B4000000F7FF478AD7BE5FF238BF8293094E517
:101B500081F821C06146CAE74FF42671702001F078
:101B600061FD40F23B71702001F05CFD40F2347188
:101B7000702001F057FD00BFBC02002100E400E02E
:101B800084020021014B93F8400470478402002135
:101B900010B5072800F29D80DFE800F01E4E63724A
:101BA0009B7883046E4C94F83230202B00F0B88080
:101BB00094F83220052194F83230C2EBC202C3EB14
:101BC000C30304EB830304EB8204D3F8BC00D4F812
:101BD000B830BDE810401847614CE36A013300F0AB
:101BE0009980E38A002B79D194F83230202B00F0D1
:101BF0008780FF23616884F827304B1C05D00520BF
:101C000000F0C4FD002800F0A680637E012B7AD08E
:101C100094F83230012194F83220C3EBC303C2EBB5
:101C2000C20204EB820204EB8304D2F8BC00D4F8B5
:101C3000B830BDE810401847494C94F83230202B9A
:101C40005BD0012384F8263001F02EFC002873D0ED
:101C5000E36A01334BD094F83230002194F83220FB
:101C6000DBE73F4C01F038F8E38A1BB101F01CFCC4
:101C7000002866D001F05CF808B10123637710BD3D
:101C8000374B0122D3F83C341A6010BD344C94F821
:101C900030306BB1E36A013348D0002384F8303030
:101CA00010BD2F4BBDE8104093F8400401F054BD27
:101CB00094F83230202B36D04FF0FF3294F8273092
:101CC0006260002B42D094F83230062194F8322022
:101CD000A3E74FF40B61702001F0A4FC01F0E4FBDA
:101CE000002881D140F66901702001F09BFC01F0D1
:101CF000ABF900F023FDE062ADE7FEF7EDFAA0E7F7
:101D0000FEF7EAFA75E7E068013820F07F4000F05E
:101D10000FFC7DE701F098F900F010FDE06260E74C
:101D2000FEF7DAFA44E7FEF7D7FAC5E701F08CF9D7
:101D300000F004FDE062B0E740F69301702001F08E
:101D400071FC40F69D01702001F06CFC40F68501AD
:101D5000702001F067FC40F66E01702001F062FC1B
:101D6000840200210E4B93F83220202A11D093F8E0
:101D70003200042193F83220C0EBC000C2EBC20253
:101D800003EB820203EB8003D2F8BC00D3F8B83037
:101D9000184740F6BC01702010B501F043FC00BFAD
:101DA0008402002170B53A4D82B095F83230202B74
:101DB00068D06B68013356D195F832400646C4EBC3
:101DC000C40405EB8404D4F8C00000F01BFAB4F896
:101DD000CE2094F8CC10531C2E4A0B44904203445E
:101DE00029D893422CDC002B1FDB33442A4A96422D
:101DF00043DC2A4A96423BDD264A934223DC002BF1
:101E00002EDB18460DF1030201A900F009FA9DF836
:101E10000320019995F827300F2A88BF013121F05E
:101E20007F41696093B902B070BD1D4A1A441949D7
:101E300093198A42DAD940F29E51702001F0F2FBE8
:101E4000184A1A44F3E717481844DBE7052000F066
:101E50009DFC0028E7D140F6EB21702001F0E2FB69
:101E60000F481844CEE740F6E421702001F0DAFB79
:101E70004FF4B461702001F0D5FB40F29F51702007
:101E800001F0D0FB40F6E321702001F0CBFB00BF56
:101E900084020021FF7F841E0040420FFFBFBDF07F
:101EA0000080841E00807BE110B50A4C94F8343029
:101EB00063B194F84034FF2B01D0002010BD01F035
:101EC0002FFC0346002084F8403410BD6FF0220040
:101ED00010BD00BF8402002138B50E4B04460BB183
:101EE000AFF30080EFF3108572B60620214600F0B4
:101EF0004DFC044625B9084B0BB1AFF3008062B628
:101F000004B138BD054B93F84004BDE8384001F0FA
:101F100023BC00BF0000000000000000840200217C
:101F200000F00CBC254910B591F83230202B40D080
:101F300091F8324091F8313091F831E0E4B203EB9E
:101F400043035FFA8EFE0B4493F82030202B20D001
:101F50004FEA4E1E06E0734401EB430393F8393019
:101F6000202B16D0C3EBC30201EB820292F8D0C043
:101F70008445F0D8C4EBC404D2F8C00001EB84045B
:101F8000D4F8C430C01A000210F1FF0F04DA0020A8
:101F900010BD4FF0FF3010BD00280C68B8BFFF30F7
:101FA000001200F02FF904F174038342EFD8001BF4
:101FB00010BD40F64531702001F034FB8402002151
:101FC0002DE9F04F8D4C85B094F83220202A00F096
:101FD0000F8194F83260804694F831208946206859
:101FE00003A902EB4202E3684044F6B222440193A3
:101FF00092F820500DF10B0200F012F9A8F17401D3
:102000007F4A91425DD8C6EBC606039A04EB86066A
:10201000D6F8C4001044A268821A22F07F42B2F5BA
:10202000000F4ED820F07F4094F83120202D84F806
:1020300018905FFA82FBE06000F0D0804FF0200A39
:10204000C5EBC50CEE0004EB8C0CDCF8C070381A44
:102050000002FF3054DBBCF8CE300BB1E38AA3B3EF
:10206000052000F01DFC94F831004FF0FF33BAF169
:10207000200FC0B2636040F0AF8000EB400020252D
:10208000204490F8202094F8311094F8323003EB7B
:10209000411304EB430383F839202368434423604E
:1020A000637EFF22012B84F8292000F08B80202DF5
:1020B00043D094F8410401F04FFB002005B0BDE887
:1020C000F08F012005B0BDE8F08FD4F8089000F043
:1020D000B5FF40F25633984227D040F2F55398426C
:1020E00021D0B0F5C67F14BF01200E20A7EB090751
:1020F0003F0248BFFF37B0EB272FB1DD94F81890AF
:10210000761B04EB860696F8D01049450FD905EBEF
:102110004B1104EB410191F83960202E11D0AA46F1
:10212000E06835468CE73320E0E71D20DEE702203B
:10213000019BE36005B0BDE8F08F002005B0BDE86D
:10214000F08F052000F0ACFB94F831004FF0FF3326
:10215000C0B2636000EB40034FF0050C05EB40128A
:1021600023444FEA400E04EB420293F820904601CC
:1021700092F8392083F820204A46B31811461746B2
:1021800004EB43038D4293F8392083F838C0F4D12F
:102190000EEB0003234493F822A0BAF1200F5FFA5C
:1021A0008AFC16D0B44404EB4C0C8CF839903144C2
:1021B0007044202304EB4101204481F8393080F839
:1021C000227060E7E368013B23F07F4000F0B0F944
:1021D0006DE783F82190EAE75546BBE7052000F05C
:1021E0005FFB4FF0FF3394F831006360C0B244E707
:1021F00040F67331702001F015FA00BF840200210F
:102200008C3F420F43F60952C0F30803400A02FB19
:1022100003F302FB00F003F5807300EB53207047DB
:1022200048F2376C430B0CFB03F300B54FEA134C39
:1022300043F6095E0F4B0EFB1C0000FB03F35B0D26
:102240000EFB03FE03EB4C2343F6085CF444B0EBB7
:102250005C2F08D80EF5807E0B60A0EB5E20C0B22C
:1022600010705DF804FB013300200B6010705DF806
:1022700004FB00BF6F0C010048F23761420B43F6CC
:10228000095C094B01FB02F2120C0CFB120150021B
:1022900001FB0333013B5B0D0CFB03FCB1EB5C2F3B
:1022A00088BF0130184470476F0C010030B4304BC8
:1022B000002204244FF080712E484FF480551A708C
:1022C0009C709A605960C0F88050BFF34F8FBFF385
:1022D0006F8F01211A734FF40034C0F88051264BE0
:1022E0004FF0FF355960C3F80853C3F84025C3F8D1
:1022F0004021C3F84425C3F84421C3F84825C3F856
:102300004821C3F84C25C3F84C211961C0F880401E
:10231000BFF34F8FBFF36F8F184AC0F880415160F1
:102320009160D2F80435002BFBD14FF0FF314FF410
:1023300000341048C2F80813C2F848134FF48271F1
:10234000C2F84035C2F84031C2F84435C2F84431D1
:10235000C2F84835C2F84831C2F80431012304609C
:1023600013600223C2F84413C2F8043330BC704730
:10237000C806002100E100E000C00041001001415A
:102380006149F8B50D78012D40F09C804B6883427F
:1023900000F097805D4B0622C3F8082503F5005333
:1023A0005B4AC3F808235B4B5B4AC3F8482300220F
:1023B000C3F84425C3F84421564BD3F8482122B929
:1023C000D3F80431002B00F09480524A4FF4803649
:1023D0000023524CC2F80863C2F84863C2F8403187
:1023E000D2F80435C31A234204D023F07F43B3F557
:1023F000000F08D9474B00224FF427716C20C3F817
:10240000402501F00FF9C2F84005C2F844632DB130
:102410004D68D2F80435EB1A2342FAD00124002289
:102420003F4D4FF480568A700C61C5F88060BFF351
:102430004F8FBFF36F8F3B4B4FF0FF37C5F8806175
:102440000A735C60C3F80873C3F84025C3F84021E1
:10245000C3F84425C3F84421C3F84825C3F84821EC
:10246000C3F84C25C3F84C211C61D3F8042522F095
:102470000302C3F80425D3F8082522F0030242F032
:102480000202C3F80825102292FAA2F2B2FA82F2EE
:10249000092A34DCC3F810254860DC600A691D4C49
:1024A000C3F80022204AC5F8806118482E60C4F89D
:1024B000C021C3F88020042240F20143C0F8042563
:1024C0000B80F8BD114B0622C3F8082503F5005315
:1024D0000F4AC3F80823002D7FF465AFC3F84823E3
:1024E000C3F84055C3F84051C3F84455C3F84451AC
:1024F00062E70B4B4FF40032C3F8802165E740F2EE
:1025000055310A4801F084F8C806002100F0004166
:10251000FDFFFBFF00100141FDFFFAFFFEFFFF0082
:1025200000E100E000C0004102000080FC59010110
:102530002A4970B50E784B68022E41D0834247D0AD
:102540000B7B002B3FD0264B02224FF48035254CCD
:10255000C3F808250023244AC2F80853C2F8485398
:10256000C2F84031D2F80435C31A234204D023F014
:102570007F43B3F5000F08D91B4B002240F2BA216C
:102580006C20C3F8402501F04DF8C2F84005C2F8B0
:1025900044532EB14D68D2F80435EB1A2342FAD0D9
:1025A000124B40F20242104D114C48600220C5F817
:1025B000C031C4F88C300A4BC3F804050A8070BDE2
:1025C0008342BDD170BD40F2AE216C2001F02AF8EB
:1025D00040F2AA216C2001F025F800BFC8060021B6
:1025E00000F00041FEFFFF000010014101000080EB
:1025F00000C0004170B5404B4049414CC3F808133E
:102600002278002A44D1C3F84813C3F84025C3F800
:102610004021C3F84425C3F84421D3F84831002BA6
:1026200065D1354BD3F80431002B5AD0022A5ED144
:10263000314A6368D2F80405033020F07F408342BA
:1026400011D0D2F804259A1A22F07F41B1F5000F7B
:1026500009D82C49114031B1FFF792FE23692A4A6B
:10266000C2F8003270BD2449284AD1F804051B1A6B
:102670001A4022B123F07F43B3F5000F15D9012290
:10268000002113462261204AA170C2F8003270BDB9
:1026900000211F48C3F84803C3F84415C3F8441188
:1026A000D3F84831002BC1D1BBE70123164A1948A2
:1026B0000226194D4FF0000C2361C0F8086584F81C
:1026C00002C05360D360C1F8C0510421C2F88050E9
:1026D00040F20142C0F8041522800B4AC2F80032D1
:1026E00070BD0E4B4FF40031C3F880119EE740F2ED
:1026F000C6216C2000F096FF00100141FDFFFBFF9A
:10270000C8060021FCFFFF0000C00041FEFFFF00E3
:10271000FDFFFAFF00F000410200008000E100E050
:10272000014B5868704700BFC8060021024B00F5F6
:10273000A87053F82000704700100141014BD3F8F6
:10274000040570470010014170B4EFF3108672B6B3
:102750000C4A0D49D2F80445D2F804315BB100258A
:102760008B6801338B60C2F80451D2F80445D2F86B
:102770000431002BF4D18B6806B962B6C0E900437E
:1027800070BC704700100141C8060021032870B5D5
:1027900021D83E4B5A68B2F1807F52D01A78022A73
:1027A0005DD03B4D82000123103003FA00F602F1A8
:1027B00040002A44C5F808634351D2F84045A1EBD4
:1027C000040C2CF07F4CBCF1020F42D800231846B9
:1027D000C2F8403570BD031FDCB2022C4CD82B4B25
:1027E0001A7812B15B7883424BD00C300122A300DF
:1027F000284DC0B203F5A07382400020C5F808231D
:10280000C5F848235851D5F80405234B081A03404E
:1028100020F07F40B0F5000F8CBF00200120002B7E
:1028200008BF002020B904F5A87345F8230070BD47
:1028300004F5A87345F82310C5F80423C5F844230C
:1028400070BD1A7B002AA9D140F256316C2000F0ED
:10285000E9FEC2F840151846C5F8046370BD5C78FF
:102860000E4A231F032CDBB24FEA83031A4498D984
:102870001368002BFCD094E740F27A316C2000F012
:10288000D1FE40F276316C2000F0CCFEC80600216B
:1028900000C0004100100141FEFFFF004011014156
:1028A000032870B582B014D800F110048200012111
:1028B000384B02F5A07200F5A870A1400024C3F8BF
:1028C000081343F82040D450D3580093009B02B023
:1028D00070BD031FDBB2022B57D82F4A117801BB02
:1028E0000C3001212D4A03F5A874C0B29B0001FAF7
:1028F00000F0C2F80803C2F8480352F82400D2F8E6
:102900000415401A2649014029B1002103F5A070A1
:1029100042F824108150234A9B580193019B02B036
:1029200070BD54788442DBD11F4C06250129C4F8C0
:10293000085505D000244FF0807114705160CFE726
:102940001A4C4FF48055C4F88050BFF34F8FBFF33B
:102950006F8F4FF0FF36C4F880510E4C0025616038
:102960001573C4F80863C4F84055C4F84051C4F85E
:102970004455C4F84451C4F84855C4F84851C4F803
:102980004C55C4F84C512161D4E740F2FE316C2023
:1029900000F048FE00C00041C806002100100141BF
:1029A000FEFFFF004011014100F0004100E100E0A6
:1029B0001E4B1F491F4AC3F8081312783ABBC3F8CD
:1029C0004813C3F84025C3F84021C3F84425C3F891
:1029D0004421164BD3F8482112B9D3F80431FBB186
:1029E000154B00224FF0FF31C3F80813C3F8402500
:1029F000C3F84021C3F84425C3F84421C3F848254F
:102A0000C3F84821C3F84C25C3F84C217047002275
:102A10000A49C3F84813C3F84425C3F84421D8E74A
:102A2000074B4FF40032C3F88021D9E70010014171
:102A3000FDFFFBFFC806002100C00041FDFFFAFFBB
:102A400000E100E0434BD3F80423D00310B503D5D5
:102A5000D3F84021002A40D13E4BD3F80423910300
:102A600003D5D3F84421002A55D13A4BD3F8042397
:102A7000520302D5D3F848218AB9364BD3F8042142
:102A800002B910BD344A002434494FF40030C3F871
:102A90000441C1F8800193680133936010BD2F4A4F
:102AA00000244FF400302E49C3F84841C2F8800199
:102AB000D3F84825D3F80435D31A194021B123F0AF
:102AC0007F43B3F5000FD8D9224B4FF48022062064
:102AD000C3F80823FFF75CF8CFE7204A00244FF43F
:102AE00000301F49C3F84041C2F88001D3F84025A7
:102AF000D3F80435D31A194021B123F07F43B3F53D
:102B0000000FA9D9134B4FF480320420C3F80823D7
:102B1000FFF73EF8A0E7114A00204FF40031C3F858
:102B20004401C2F88011D3F84425D3F80435D31AF0
:102B300023F07F42B2F5000F03D8094A1A40002A59
:102B400093D1044B4FF400320520C3F80823FFF75C
:102B50001FF88AE700100141C806002100E100E0EB
:102B6000FEFFFF0030B5594C85B0A378042B32D05E
:102B700023785BB1012B00F0A180237B002B00F0B8
:102B80009F80022360782370FFF78AFE504BD3F8B2
:102B90000423150302D5D3F84C2112BB4C4BD3F8B8
:102BA0000423500303D5D3F84821002A34D1484BDD
:102BB000D3F80423910303D5D3F84421002A46D146
:102BC000434BD3F80423D20303D5D3F84021002A82
:102BD00058D105B030BD072005B0BDE83040FEF744
:102BE000D7BF00224FF400203A49C3F8080303205E
:102BF000C3F84C25C3F84C21D3F84C3100934FF463
:102C00008053009AC1F88031FEF7C2FF304BD3F8F1
:102C100004235003CBD5C6E700224FF480202D4972
:102C2000C3F808030220C3F84825C3F84821D3F8A5
:102C3000483101934FF48053019AC1F88031FEF777
:102C4000A7FF234BD3F804239103B9D5B4E700229F
:102C50004FF400301F49C3F808030120C3F844258E
:102C6000C3F84421D3F8443102934FF48053029ABD
:102C7000C1F88031FEF78CFF154BD3F80423D20343
:102C8000A7D5A2E700204FF48031124AC3F80813F9
:102C9000C3F84005C3F84001D3F840112061039107
:102CA0004FF48051039DC2F880110422A270C3F832
:102CB000000205B0BDE83040FEF76ABF237360E74D
:102CC0004FF495616C2000F0ADFC00BFC8060021F8
:102CD00000C0004100E100E0074B93F90030002BF9
:102CE00009DB5A09012103F01F030448403201FAAD
:102CF00003F340F822307047DC06002100E100E0D9
:102D0000024B00221A705A80704700BFE006002173
:102D1000014B5888704700BFE0060021034B18782C
:102D2000023801288CBF002001207047E0060021F6
:102D3000034B1878A0F10300B0FA80F04009704707
:102D4000E0060021BFF35F8F024A137803F0FE0311
:102D500013707047E4060021064B1A78D20707D497
:102D60001A7842F001021A70BFF35F8F012070479A
:102D700000207047E406002108B5FFF7D1F80A4AA1
:102D8000034652685069C31A1B02B3F5407F03DB48
:102D9000BDE80840FFF7A0B8FFF7D4FFFEF7F2FE4A
:102DA000BDE8084000F0D8BCE406002170B40E4D28
:102DB0006B6823B96860C36170BCFFF7DDBF46690B
:102DC0001A4600245169711A0902FF3109DBD169E1
:102DD000144621B9E369C361E06170BC70470A46DB
:102DE000F0E79342F6D1E5E7E4060021074A53688D
:102DF000834203D1DB6953607047134623B1DA691C
:102E00009042FAD1C269DA61704700BFE40600213E
:102E10002DE9F0413A4FFFF783F801467C68002C1A
:102E20006BD0FFF799FF804630B9C81C20F07F4077
:102E3000BDE8F041FFF750B87B685869411A0902B4
:102E4000B1F5407F21DA2F4E2046FFF7CFFF257CDA
:102E500005B36369013D03F580032574002523F064
:102E60007F436361FFF7A2FF7C6854B1FFF758F816
:102E700003466069C31A1B02B3F5407F36DBFFF7D8
:102E80002BF8BDE8F041FFF75DBFFFF75BFF7B6804
:102E90005869CDE7A069C8B1B042217A1DD9B0FB0D
:102EA000F6F506FB1505002D08BF3546284602F04D
:102EB000E9FA6369184420F07F406061A069401B13
:102EC000B0FBF6F020742046FFF770FFFFF73AFFE3
:102ED0002046E36845469847C6E702F0D3FA63699F
:102EE0002574184420F07F406061ECE7002DABD0E2
:102EF000FEF748FE00F030FCC3E7BDE8F08100BFFC
:102F0000E40600210020A1070148FEF7CDBF00BF65
:102F1000112E00012DE9F04105468846FFF71CFF00
:102F200000286ED04DB3384B5E6816BB1022314678
:102F3000A81800F059FCFEF7F3FFB8F1010F07469F
:102F400021D018F0FD0F57D12B7A2C68002B4BD0D5
:102F50003D2C4CD8B8F1020F4FF03F0400D1AC61CA
:102F6000297A204602F08EFA074427F07F476F61E6
:102F700033E0B54201D0F669D7E76FF01500FFF7EF
:102F8000E1FEBDE8F0812868DFF880804045F4D894
:102F9000297A02F077FAC01B0302E6D43846FFF71D
:102FA00031F92C68844238BF4444241ADFF8608029
:102FB0004445D5D9297AB4FBF8F608FB1646002E0D
:102FC00008BF46463046A61B02F05CFA0744B6FB33
:102FD000F8F627F07F472E746F612846FFF7E6FE6C
:102FE0000020FFF7AFFECCE75D2C38BF5D24B8F1C1
:102FF000020FDBD1AC61D9E74FF4B2716E2000F063
:1030000011FB6FF02200BCE7E4060021E17F841E83
:103010000020A10708B50B4659B148B14FF0FF3168
:10302000054A8C46E0FB03C1604602F03FFA0130DE
:1030300008BD0846FCE700BF40420F00014B58881E
:10304000704700BFEC06002110B5EFF3108472B694
:10305000064A93790133DBB293719379012B01D145
:1030600000F008FA04B962B610BD00BFEC060021FA
:1030700070B50B4C26785EB90125A0602570FFF76E
:10308000E3FF00F011FA28B9064B2573C3F8045387
:10309000002070BDA368002BFAD09847A660F7E720
:1030A000EC0600210050004108B5FFF7CDFF00F00D
:1030B000FBF9084A084B30B10121116104225A730F
:1030C00000229A7308BD032159730121C2F8041329
:1030D000F6E700BF00500041EC06002138B5114C66
:1030E000E37BB3B1A27B013B9A4212DA00F0DCF938
:1030F000054600F0D7FAE37B012B82BFA37B0133A7
:10310000A37355B12369C31A0133022B09D935B111
:103110002061BDE83840FFF7C7BF6369F3E760612E
:10312000F7E738BDEC06002110B5EFF3108472B656
:103130000A4B9A7922B940F219116D2000F072FA07
:103140009A79013AD2B29A719A791AB91B7E0BB95F
:1031500000F096F904B962B610BD00BFEC0600217C
:1031600008B5054B1A7822B100221A731A70FFF7BE
:10317000DBFF002008BD00BFEC06002170B51B4C32
:10318000637E7BB9E06900F0030000F0B5F948B157
:10319000FFF7BAFE30B9EFF3108372B6627B12B15B
:1031A00003B962B670BD0122627303B962B600232F
:1031B0000F4D8026C5F80863C5F81C3184F820300F
:1031C000FFF772FF94F8443002210A4A0A48534339
:1031D00063620A4B2363FFF79DFE20B140F24B214F
:1031E0006D2000F01FFAC5F80463DBE7EC06002150
:1031F0000050004190D0030010070021DD30000195
:10320000F8B5264C94F84530002B45D0244BD3F824
:103210000071D3F8046157B10122C3F80823237B5E
:103220002BB10025A36825730BB19847A5601C4DF1
:103230003EB10023C5F804310223C5F80833FFF777
:103240009DFFD5F81C3194F82060F6B237B1627B4F
:10325000032A01BF0422627301222A617BB1104B51
:103260000022C3F81C21637B042B04D04FF4E471CB
:103270006D2000F0D7F902236373FFF755FF5EB1AD
:10328000002384F82030637B022B01D1FFF70CFF71
:10329000BDE8F840FFF748BFF8BD00BFEC060021CD
:1032A0000050004110B5044CE06900F0030000F04C
:1032B00023F90028F8D010BDEC060021F8B505462A
:1032C00050B10278022A07D8437842B9013B1F2B3C
:1032D00002D88378212B07D96FF015006AE0002B04
:1032E000FAD18378002BF7D15E4B2022C3F88020DF
:1032F000BFF34F8FBFF36F8F5B4EC3F880214FF04A
:10330000FF335A4CC6F808330023C6F80031C6F81C
:103310000431C6F81C31A371AB88A38000F0D4F847
:1033200010B101232370A371D6F80C34D6F80C2405
:10333000D70303D5DE0701D500F0B0F840F2F5530E
:10334000AA78697863800123E2730022E3612B7815
:1033500084F84410012B6376A2732CD0022B2DD05D
:10336000002B38D100F0B8F800283ED000F0BCF8AF
:10337000E36903F00303984237D1AB7983BBFFF7CE
:1033800091FFE37B63B12B7853B900F08DF80546CC
:1033900000F088F96FF00043002D60D0C4E9040309
:1033A00001232022002084F845302E4B6073C3F89F
:1033B00080211A60F8BD0223E361D3E7FFF744FEE2
:1033C000294BD3F80C24D3F80C14C803F9D5D10732
:1033D000F7D50323F0E740F23D316D2000F022F9EC
:1033E000214B0222C3F80423CBE71F4B012200210B
:1033F000DA60C3F80411217FC3F818159A6002221D
:10340000C3F80423AA79002ABBD1D3F80423920776
:1034100002D44FF43E71E0E7154A1769116907F0CD
:10342000100741F010011161D3F804310BB902F01B
:103430003BF80D4ED6F8043173B1FFF733FF27B9CF
:103440000B4A136923F0100313610223C6F80833F3
:103450000023C6F8043194E702F025F8EAE7C4E94E
:1034600004309DE700E100E000500041EC0600213F
:1034700000ED00E0014B01221A607047005000414E
:10348000044A012353600023C2F80031024A13703A
:10349000704700BF0050004133070021014B01225B
:1034A0001A70704733070021054BD3F8003123B958
:1034B000044B187800F0010070470120FAE700BFC4
:1034C0000050004133070021024BD3F8080400F0FC
:1034D0000100704700500041024BD3F8140400F083
:1034E0000100704700500041024BD3F81C0400F06B
:1034F0000300704700500041074B0246D3F81814F0
:10350000D3F8180410F4803005D0D0B201F00303D2
:103510001B1A58425841704700500041BFF34F8F6B
:103520000549064BCA6802F4E0621343CB60BFF35F
:103530004F8F00BFFDE700BF00ED00E00400FA057B
:10354000094B01225A604FF0FF32C3F808234FF4B1
:103550008032064BC3F88020BFF34F8FBFF36F8FCD
:10356000C3F88021704700BF0000014100E100E086
:10357000094B0022C3F8FC2F0122C3F8FC2F4FF4A3
:103580008072064BC3F88020BFF34F8FBFF36F8F5D
:10359000C3F88021704700BF0080004100E100E0D7
:1035A000F8B5194E05460C46174633784BBB01F06B
:1035B00057FF164B7760002D08BF1D463472FFF78A
:1035C000D7FF2846FFF7BCFFFFF778FE0546B0B9E6
:1035D000FDF7E8FCFFF7D2FD01F043FF002C0CDB08
:1035E00004F01F0264090123A400934004F1604425
:1035F00004F56144C4F88031236001233370284608
:10360000F8BD4FF0FF35FAE734070021B05601014D
:1036100008B572B6024B5B6803B19847FFF77EFFAF
:10362000340700211FB572B6134B5D688DB9FFF7E3
:1036300075FFB4FBF6F4D3B20132002CF9D103F1DB
:1036400010026A4402F80C4C0A2233B901A8A847B8
:10365000EDE7044600220A26EDE7013BDBB203F169
:1036600010040DEB0406B0FBF2F402FB1400303042
:1036700006F80C0C2046E8E734070021074B93F9C5
:103680000830002B09DB5A09012103F01F034032E7
:1036900001FA03F3024941F8223070473407002150
:1036A00000E100E01B4B4FF4803270B5C3F880207E
:1036B000BFF34F8FBFF36F8F174D0021174CC5F825
:1036C0000011C3F880212669236906F0100643F033
:1036D000100323610123C5F804332B60D5F80031B2
:1036E000A3B11EB9236923F0100323610A4B012201
:1036F000D3F808055A60C3F808230022C3F8002154
:103700004FF48032034BC3F8802170BD01F0CBFE33
:10371000E4E700BF00E100E00000014100ED00E04F
:1037200002460C49052038B50138C0B2FF2803D144
:1037300048216920FFF776FF01EBC0031D7905F0F2
:10374000FF04002DF0D141F8302001225C719C7102
:103750001A7138BD40070021042808B503D9582143
:103760006920FFF75FFF094B03EBC0000379012BD2
:1037700001D05921F4E7437982790133DBB29A42CF
:1037800018BF4371BDE80840FFF778BF400700212C
:1037900070B50625114C0026013D15F0FF0500D13E
:1037A00070BD94F8281004EBC1031A79012A09D1DD
:1037B00058799A79904205D05A79D2B29A7154F8D0
:1037C0003130984794F828300133DBB2042B94BF92
:1037D00084F8283084F82860DEE700BF4007002125
:1037E00000487047000708412DE9F04184075FFA5F
:1037F00081FE5FD0002A59D0034601E0002A55D04F
:1038000003F801EB990702F1FF32F7D14EEA0E24DB
:10381000032A44EA04443ED9151FC3F38001AE08CD
:10382000172D06F1010647D99846002940D048F8DF
:10383000044B771A03EB810C79080CEBC101CCE93E
:1038400000440CF1080C6145F9D127F0010C08EB9C
:103850008C016745CCEB8C7805EB880517D02F1FC2
:103860000C60032F13D9A5F108074C60032F0ED964
:10387000A5F10C078C60032F09D9A5F11007CC60C6
:10388000032F04D9143D0C61032D88BF4C6102F055
:10389000030203EB86034AB1013A83F800E005D046
:1038A000012A83F801E018BF83F802E0BDE8F08147
:1038B0001546BEE70346A9E719461546CFE700BF00
:1038C000014B1B681B68184700000021014B1B6857
:1038D0005B68184700000021014B1B689B68184774
:1038E00000000021014B1B681B69184700000021E4
:1038F00038B5174C0320FEF715FB032125688542D8
:1039000028BF05462846FEF75BFB30B1012819D0D9
:103910004FF4A7716B20FFF785FE2368E068AB4288
:1039200006D1FEF73FFAE26823681344E36038BD2E
:10393000054460890123281AE5602374BDE83840F6
:10394000FEF730BA63892074E068C01AF6E700BF5A
:103950007007002108B50C4B1A7802F0FF0312B172
:103960005A1E1A4203D0E0216B20FFF75BFE19B10B
:10397000034207D1E521F7E723EA00039B0601D1C3
:10398000E921F1E708BD00BF040000211822002151
:1039900010B50E4CA018FFF727FF0123022204F1F7
:1039A00018012376032394F8300084F8223023682A
:1039B000E3616368A362064B1A70FDF729FD20B925
:1039C0004FF483716B20FFF72DFE10BD70070021AF
:1039D0000400002170B5EFF3108572B6264C002369
:1039E00094F8316084F83130012E06D0022E1DD0BB
:1039F000002E3BD185F3108870BD85F3108894F8B4
:103A0000323003F0FF0123B140F25B116B20FFF76E
:103A100009FE1420FFF79EFF184B84F832601B78D4
:103A2000012BE9D1BDE87040FFF7B0BF94F8322018
:103A300012B94FF4B671E9E7104984F832300B78C7
:103A4000023BDBB21E2B0ED8012202FA03F30C4A12
:103A50001342CFD144F20402134204D020230B704E
:103A6000FDF7DEFAC6E74FF4C471CFE785F310889F
:103A70004FF4D771CAE700BF70070021040000218E
:103A80004100004070B5144C94F8335025B140F219
:103A90008D216B20FFF7C6FD104B01264FF4C85255
:103AA00084F832501E700E4B0E48C4E900230E4BB2
:103AB000A360FFF735FE294684F834000B48FDF774
:103AC0007BFC202884F8300002D14FF42771E0E716
:103AD00084F8336070BD00BF70070021040000212E
:103AE000FF3F420FD53900010500B7004D3C0001F2
:103AF00008B5104B93F8332022B94FF43F716B2077
:103B0000FFF790FDEFF3108172B693F8312022B1E8
:103B1000012A0DD04FF44371F1E7022283F83120DE
:103B200001B962B693F83400BDE80840FFF714BE4F
:103B30000022F3E7700700210B4B93F8333010B5E8
:103B400023B940F21B316B20FFF76CFDEFF31084BB
:103B500072B6064B1A78102A03D108221A70FDF7A4
:103B60005FFA04B962B610BD70070021040000219D
:103B7000114B10B51B78042B1BD1104B1A7C1AB9B2
:103B80005A891868801A10BDFEF7D8FD0446012036
:103B9000FEF7CCFD01380A4B001B000248BFFF3086
:103BA000001220EAE07080FB0303C00B40EA4340B0
:103BB000E9E70020E7E700BF0400002170070021CB
:103BC00040420F0038B5144C94F8333023B940F21A
:103BD000D1216B20FFF726FDEFF3108572B694F824
:103BE000313023B1022B0DD04FF43971F1E70123AD
:103BF00084F8313005B962B694F83400BDE8384035
:103C0000FFF7AABD054B00221B7884F83120042B56
:103C1000F0D10DF0AFFDEDE77007002104000021A9
:103C200008B5094B19781029CAB207D0202A05D047
:103C3000042A04D110221A700DF0ACFD08BD40F228
:103C4000CD116B20FFF7EEFC0400002110B50C46EF
:103C5000FEF774FD611E06293AD8DFE801F004443E
:103C600044282357500001210220FFF773FE2B4BFD
:103C70002B4A93F8321079B1042111701A68DA6076
:103C800000221A7493F83130022B01D00DF072FD2E
:103C9000BDE81040FFF72CBE20231370BDE8104094
:103CA000FDF7BEB940F215216B20FFF7BBFC1B4BA3
:103CB00093F8322062B11A4A1278042A09D11B7C87
:103CC000012B03D1174BD3F844311BBB07F0D8F9B4
:103CD00010BD154B4FF48072C3F88020BFF34F8F97
:103CE000BFF36F8FF4E701210220FFF733FE0B4B88
:103CF00093F8323033B1BDE81040FFF747BE0121E1
:103D00002820F2E7064B01221A70E1E7034B1B7CE7
:103D1000012BBDD1BDE81040FFF782BF7007002125
:103D2000040000210010014100E100E0014B0122EC
:103D30009A777047A807002100207047074B1A6840
:103D40004AB95A683AB99A682AB9D868003818BF87
:103D50000120404270474FF0FF307047100A0021A9
:103D6000104B1A6810B5CAB9DA6EBAB95A68AAB94E
:103D70001C6F9CB993F848200AB9002010BD93F835
:103D80007420012193F8583002F1824202F520425A
:103D90001160002BF1D001F07BF8EEE74FF0FF301F
:103DA000ECE700BF5C0A002138B5114C2368E3B989
:103DB000D4F8A430CBB96368BBB9D4F8A050A5B986
:103DC00094F8843023B101F081F8284601F06EF9AF
:103DD00094F8480040B194F89D300122002003F18E
:103DE000824303F520431A6038BD4FF0FF30FBE7F4
:103DF000E40A00214FF0FF307047000070B50C4618
:103E0000054688B1037823B1012B1CD06FF0150053
:103E100018E01F490B6991F8472091F8281000F02D
:103E200053FE78B91A4B1D607CB32378012BEDD17A
:103E3000174D204695F8462095F8281000F0AEFD65
:103E400000B96C6070BD124A92F82810D1B192F896
:103E5000421010488900CEB230442E7946F0004618
:103E600006600D4892F83E60084446F00041B340B9
:103E7000016092F84700094A115002F59F42C2F8CA
:103E80000435CFE74FF0FF30DCE72046DAE700BF2C
:103E9000100A0021804001418041014180A0004181
:103EA00070B50C46054688B1037823B1012B1FD0AD
:103EB0006FF015001BE01F498B6891F8672091F89F
:103EC000281000F02FFE90B91A4B1D6064B12378C2
:103ED000012BEDD1174D204695F8662095F8281056
:103EE00000F08EFD18B9EC6600F0BCFF002070BD3C
:103EF000104A92F82810D1B192F863100E48890048
:103F0000CEB230442E7946F0004606600B4892F857
:103F10005F60084446F00041B340016092F86700DA
:103F2000074A115002F59F42C2F80435CCE74FF022
:103F3000FF30DCE75C0A0021804001418041014103
:103F400080A0004170B50C46054680B1037823B1CE
:103F5000012B1CD06FF0150018E01F498B681C3135
:103F600091F87F2000F0DCFF80B91B4B1D6084B30B
:103F70002378012BEED1184D204695F89A2095F81C
:103F8000281000F06FFD08B9C5F8A44070BD124AB2
:103F900092F82810D1B192F8911010488900CEB251
:103FA00030442E7946F0004606600D4892F88B604A
:103FB000084446F00041B340016092F89B00094A72
:103FC000115002F59F42C2F80435CEE74FF0FF30A2
:103FD000DCE72046DAE700BFE40A00218040014127
:103FE0008041014180A000414FF0FF307047000048
:103FF00010B5204C206888B1037833B1012B1CD058
:1040000040F24D217220FFF70DFB94F828301BB1D0
:1040100094F8471000F048FC00232360636853B114
:104020001B78012B22D194F8461094F8280000F058
:104030005BFC00236360002010BD94F82820002A58
:10404000EAD094F83E20002193400B4AC2F808358C
:104050000A4B94F84720995094F84230084A9B0044
:10406000D150DBB2A2F58072D150D5E74FF4177171
:10407000C8E700BF100A002100F0004180A0004105
:104080008041014110B51F4C206880B1037833B1E5
:10409000012B1BD040F281217120FFF7C3FA94F865
:1040A000672094F8281000F097FD00232360E36E4A
:1040B00053B11B78012B22D194F8661094F8280094
:1040C00000F030FC0023E366002010BD94F82820A7
:1040D000002AEAD094F85F20002193400A4AC2F8EF
:1040E00008350A4B94F86720995094F86330084AD1
:1040F0009B00D150DBB2A2F58072D150D5E74FF4CE
:104100002471C9E75C0A002100F0004180A0004151
:104110008041014110B5204C206880B1037833B153
:10412000012B1DD040F21F317620FFF77BFA94F867
:104130009B2094F8281000F08DFD00232360D4F814
:10414000A4305BB11B78012B23D194F89A1094F81A
:10415000280000F005FC0023C4F8A430002010BDA6
:1041600094F82820002AE8D094F88B20002193406E
:104170000A4AC2F808350A4B94F89B20995094F8E3
:104180009130084A9B00D150DBB2A2F58072D15029
:10419000D3E740F22E31C7E7E40A002100F00041E6
:1041A00080A0004180410141704700000D4A92F813
:1041B00028304BB1C10707D592F84630012103F1F1
:1041C000824303F52043196092F838304BB18307DE
:1041D00007D592F84430012203F1824303F52043CE
:1041E0001A607047100A00210D4A92F828304BB12E
:1041F000C10707D592F86630012103F1824303F528
:104200002043196092F838304BB1830707D592F8F4
:104210006430012203F1824303F520431A607047A2
:104220005C0A00210D4A92F828304BB1C10707D52E
:1042300092F89A30012103F1824303F5204319607B
:1042400092F838304BB1830707D592F898300122A5
:1042500003F1824303F520431A607047E40A00210A
:104260004FF0FF3070470000194B1A6830B562BB41
:104270009A6852BB93F83820CAB193F84120154987
:10428000920093F84450D4B2214440F000440C60B2
:10429000114993F83D40114444F000420A600F492F
:1042A0004A51012201F59F41A240C1F8042593F82B
:1042B00028202AB193F8461040F00040074A505099
:1042C0000122002083F8482030BD6FF01500FBE785
:1042D000100A0021804001418041014180A000413D
:1042E000194B1A6830B562BB5A6852BB93F8382034
:1042F000CAB193F862201549920093F86450D4B281
:10430000214440F000440C60114993F85E40114490
:1043100044F000420A600F494A51012201F59F41D1
:10432000A240C1F8042593F828202AB193F866101A
:1043300040F00040074A50500122002083F86820D6
:1043400030BD6FF01500FBE75C0A002180400141A1
:104350008041014180A00041194B1A6830B562BB11
:104360005A6852BB93F83820CAB193F89020154987
:10437000920093F89850D4B2214440F000440C606D
:10438000114993F88A40114444F000420A600F49F1
:104390004A51012201F59F41A240C1F8042593F83A
:1043A00028202AB193F89A1040F00040074A505054
:1043B0000122002083F89C2030BD6FF01500FBE740
:1043C000E40A0021804001418041014180A0004178
:1043D00090F90030002B14BF6FF0150000207047DB
:1043E0000146014801F0A4B9200A0021002303700E
:1043F000704700000146014801F094B9200A0021ED
:10440000002201F035B9000007B5009313460A46B3
:104410000146034801F0A5F903B05DF804FB00BFB5
:10442000200A00214FF0FF307047000070B50C46A5
:10443000054678B1037813B16FF0150070BD0E4ECC
:10444000736996F8452096F8381000F03DFB002877
:10445000F4D1B56074B12378012BEDD1064D20461F
:1044600095F8442095F8381000F098FA0028E5D126
:10447000EC60E3E72046E1E7100A002170B50C4646
:10448000054678B1037813B16FF0150070BD0E4E7C
:10449000F36896F8652096F8381000F043FB002882
:1044A000F4D1756074B12378012BEDD1064D20460F
:1044B00095F8642095F8381000F0A2FA0028E5D1AC
:1044C0002C67E3E72046E1E75C0A002170B50C4663
:1044D000054678B1037813B16FF0150070BD0F4E2B
:1044E000F36806F12C0196F8992000F019FD0028D8
:1044F000F4D175607CB12378012BEDD1074D2046B6
:1045000095F8982095F8381000F0ACFA0028E5D11D
:10451000C5F8A040E2E72046E0E700BFE40A00213A
:104520004FF0FF307047000010B5124CA06850B13A
:104530000378BBB994F838301BB194F8451000F0FB
:10454000B3F90023A360E36853B11B78012B0ED1AC
:1045500094F8441094F8380000F0C6F90023E360A2
:10456000002010BD40F276217220FFF75BF840F288
:104570008521F9E7100A002138B5114C606840B177
:104580000578ADB994F8652094F8381000F024FB54
:104590006560236F53B11B78012B0ED194F8641022
:1045A00094F8380000F0BEF900232367002038BDDE
:1045B00040F2AA217120FFF735F840F2B921F9E75E
:1045C0005C0A002138B5124C606840B10578BDB96D
:1045D00094F8992094F8381000F03CFB6560D4F80A
:1045E000A0305BB11B78012B0FD194F8981094F890
:1045F000380000F0B5F90023C4F8A030002038BD21
:104600004FF452717620FFF70DF840F25731F9E779
:10461000E40A00214FF0FF3070470000154B93F87B
:10462000482022B393F83820A2B193F83D1001221C
:1046300000208A401049C1F80825104A93F8441018
:10464000505093F841200E4992008850D2B2A1F503
:104650008071885093F828202AB193F84610074AB1
:104660000A4400211160002083F8480070474FF091
:10467000FF307047100A002100F0004180A0004187
:1046800080410141154B93F8682022B393F83820FC
:10469000A2B193F85E10012200208A401049C1F8AF
:1046A0000825104A93F86410505093F862200E4980
:1046B00092008850D2B2A1F58071885093F82820DA
:1046C0002AB193F86610074A0A44002111600020BD
:1046D00083F8680070474FF0FF3070475C0A002194
:1046E00000F0004180A0004180410141154B93F84A
:1046F0009C2022B393F83820A2B193F88A100122AB
:1047000000208A401049C1F80825104A93F89810F3
:10471000505093F890200E4992008850D2B2A1F5E3
:104720008071885093F828202AB193F89A10074A8C
:104730000A4400211160002083F89C0070474FF06C
:10474000FF307047E40A002100F0004180A00041E2
:104750008041014100230370704700000146014879
:1047600000F0F8BF200A0021014B1B681B681847A6
:1047700008000021014B1B689B68184708000021B6
:10478000014B1B68DB68184708000021014B1B68C0
:104790001B69184708000021014B1B685B6918471B
:1047A00008000021014B1B689B6918470800002185
:1047B000014B1B685B6A184708000021014B1B680E
:1047C0001B6B184708000021014B1B68DB6B184767
:1047D0000800002110B4034C24686468A44610BC8F
:1047E000604700BF08000021024B1868003818BF5E
:1047F000012070470408002110B4024C2468A4462C
:1048000010BC604704080021F8B51E4E15465FB283
:104810000C4696F900203946821A002AD4BF328805
:104820007288A5F8012095F90130C01A00F307003D
:1048300040B2FBF7DFFC6B78B4F51B6F28700344C4
:10484000EB701AD840F665139C4218D9A4F665148B
:104850000521B4FBF1F4E4B224013946FBF7B0FCC6
:1048600096F9003095F9012034449A4204440CBF73
:10487000237994F80431AB70F8BD0F24ECE70024E1
:10488000EAE700BF0C08002190F9002090F90230FF
:1048900041889A42034B0288C7BF19805A805980C9
:1048A0001A8070470C08002138B50C4B04460D46A1
:1048B00093F83C2001239340094AC2F80835007C54
:1048C00000F005FF074B00225A518300616803F591
:1048D000A0739BB28033CA5038BD00BF100A0021BC
:1048E00000F0004180A00041A0B10B4B93F848209C
:1048F00072B193F844208A420CD193F840300021E1
:10490000064A9B00D150DBB2A2F58072D1507047AD
:10491000034B5A50704700BF100A002180410141EB
:1049200080A00041A0B10B4B93F8682072B193F8BE
:1049300064208A420CD193F861300021064A9B0022
:10494000D150DBB2A2F58072D1507047034B5A5060
:10495000704700BF5C0A00218041014180A00041F6
:10496000A0B10B4B93F89C2072B193F898208A4227
:104970000CD193F88F300021064A9B00D150DBB256
:10498000A2F58072D1507047034B5A50704700BF58
:10499000E40A00218041014180A00041034610B596
:1049A000F9B1134991F84800A8B191F84400904238
:1049B0001AD191F840201B7992000E4843F0004331
:1049C000D4B2035100200C4B134491F83D2042F027
:1049D00000421A6010BD1B79084943F000438B5018
:1049E000F8E74FF0FF30F5E76FF01500F2E700BF92
:1049F000100A0021804001418041014180A0004116
:104A0000034610B5F9B1134991F86800A8B191F8BF
:104A1000640090421AD191F861201B7992000E48EF
:104A200043F00043D4B2035100200C4B134491F8DF
:104A30005E2042F000421A6010BD1B79084943F025
:104A400000438B50F8E74FF0FF30F5E76FF01500AB
:104A5000F2E700BF5C0A0021804001418041014132
:104A600080A00041034610B5F9B1134991F89C00AC
:104A7000A8B191F8980090421AD191F88F201B7933
:104A800092000E4843F00043D4B2035100200C4B77
:104A9000134491F88A2042F000421A6010BD1B793D
:104AA000084943F000438B50F8E74FF0FF30F5E73B
:104AB0006FF01500F2E700BFE40A002180400141D9
:104AC0008041014180A00041F8B5044617461D46CB
:104AD000F9B1007C00F0FBFD0F4B8100626893F898
:104AE0003C60C0B201F5A07146F0004300F5A8702B
:104AF00089B2803153500949CB51E2686368521B37
:104B000043F820200123064A0020B340C2F80435B0
:104B1000F8BD4FF0FF30FBE7100A002180A00041F4
:104B200000F000412DE9F041054690461E460C4636
:104B3000264FE1B1007C002100F036FE97F85D4081
:104B400083006A6844F00041C0B203F5A07300F529
:104B5000A8709BB28033D1501D4B43F8081001213F
:104B6000EA686B6801FA04F4921B43F8202097F876
:104B7000483033B3287C00F017FE97F85C108200B1
:104B80006B6841F0004CC0B202F5A07200F5A8704D
:104B900092B2803243F802C097F875200C4B43F86C
:104BA00002C03B696A681E44EB689E1B01238B4070
:104BB00042F820601C43074B0020C3F80445BDE8C1
:104BC000F0810029F7D14FF0FF30F8E75C0A0021AF
:104BD00080A0004100F00041F8B5054617461A4E86
:104BE000B1B196F85D300124184A002104FA03F3AC
:104BF000C2F80835007C00F0D7FD154B0022DA51D1
:104C00008300696803F5A0739BB28033CA502146C4
:104C100096F84830B3B196F85C20012393400B4AD4
:104C2000C2F80835287C00F0BFFD96F87520084BC7
:104C3000134400221A608300696803F5A0739BB2D5
:104C40008033CA50F8BD00BF5C0A002100F000416B
:104C500080A000412DE9F04705461746414C002948
:104C600045D094F88930012694F88C20002106FA6A
:104C700003F306FA02F2134394F88D2006FA02F2C7
:104C80001343394AC2F80835007C00F0A5FD0346FD
:104C900094F8858000229B0094F886104046914647
:104CA00003F5A07300F037FD69689BB2D4F85CA0EF
:104CB0008033CA502D4BCAF890201A50324694F8CF
:104CC0008610404600F027FDCAF8989143F80790F7
:104CD00094F8923026499B00DEB241F8069001F527
:104CE000807141F803901146204B43F8009094F8EE
:104CF00048304BB394F8883001261B4A06FA03F378
:104D0000C2F80835287C00F067FD034694F8861049
:104D100032469B0094F8850000F0FDFC696803F5BD
:104D2000A07300229BB28033CA5094F89E100F4BA0
:104D30005A5094F893300E499B00DDB24A5101F568
:104D40008071CA50094B1A5094F8843043B100F076
:104D5000DFF800F059FD0120BDE8F04700F0A6B9EA
:104D6000BDE8F087E40A002100F0004180A0004186
:104D700080400141064B1B6893F91120824205D007
:104D800093F912301B1A584258417047002070475F
:104D9000D40A0021084B90F9002093F904109142A5
:104DA00003D093F90510914203D102880020DA80E4
:104DB00070476FF015007047D40A0021044A136849
:104DC00093F820300BB192F906300370704700BFA2
:104DD000D40A0021044B1A6892F830300BB192F9D2
:104DE00013300370704700BFD40A0021F0B585B0BE
:104DF00005460C4617461E46FFF7F6FC40B1334603
:104E00003A462146284605B0BDE8F04000F04EBCC9
:104E1000134B1A6892F8501011B192F820209AB9E9
:104E20000DF10F002146FFF7C9FF33469DF90F2012
:104E3000284600F01DFC014694F90100FFF79AFF97
:104E4000A070084605B0F0BD93F90520214628461C
:104E50000092324693F9043000F01BFCEBE700BFF0
:104E6000D40A002109490B6893F8202062B193F815
:104E700050204AB193F84D009A6C0123C9798340C0
:104E800009B193607047D360704700BFD40A002116
:104E9000044B1B6893F84D109A6C01238B40D36030
:104EA000704700BFD40A0021074B4FF000421B6837
:104EB000C3F824250022C3F85425C3F8C0250722CF
:104EC000C3F80025704700BFDC0A0021024B002216
:104ED0001B68C3F800257047DC0A00210B4A60F00C
:104EE0003F0051710021107152F8043BC3F8501576
:104EF000C3F84015C3F844250222C3F84825C3F877
:104F00003415C3F83815C3F818117047DC0A0021AE
:104F1000024B01221B685A61704700BFDC0A002166
:104F20002DE9F84F0C46C76806469246FF1A00F076
:104F30006CFC257B3F1A594C002D00F0A88000F036
:104F4000EBF800218046307C00F046FC94F885B0F8
:104F500094F8861005460122584600F0DCFB94F8D0
:104F60008930D4F85C9043F000434D4A4D49C9F86C
:104F7000983142F80A3094F8922092005FFA82FC4D
:104F800041F80C3001F5807194F88D3043F0004306
:104F90008B50434A1350AB0094F88610002203F55F
:104FA000A073584600F0B7FB94F88C209BB2716850
:104FB00042F00042EDB2803305F5A875CA50384B77
:104FC000C9F890201A50FFF76FFF00204FEA8801C0
:104FD00001F0FC01FFF782FF7368012143F825709F
:104FE00094F8895094F88C3001FA05F501FA03F32E
:104FF0001D4394F88D3001FA03F31D4394F84830B3
:10500000002B46D0307C00F0E7FB034694F8861076
:10501000012294F8850000F07EFB94F888C0990086
:10502000D6F804E04CF00048DBB201F5A07102FABA
:105030000CFC03F5A87389B245EA0C0580314EF8E3
:10504000018094F89EE0164941F80E8094F8931080
:10505000DFF850E089005FFA81F94EF809800EF51B
:10506000807E8E4494F88D1041F00041CEF80010FF
:10507000DFF82CE04EF80010206971683F1A41F803
:105080002370094B0020C3F80455BDE8F88F29466A
:10509000B4E70029F5D14FF0FF30F6E7E40A00212C
:1050A00080A000418040014100F000410A4A92F88E
:1050B000863092F885209B00824203F1824303F5FB
:1050C0002043D3F8102514BF22F4801242F480123A
:1050D000C3F81025704700BFE40A0021094B90F97E
:1050E0000120196810B591F90040944202D14B7823
:1050F000837010BD5B6893F900109142F9D15B7821
:10510000F6E700BF8C0B002102880020014B9A813A
:10511000704700BF8C0B0021014B587B704700BFCC
:105120008C0B0021044A936893F820300BB192F95C
:105130000C300370704700BF8C0B0021044B9A6841
:1051400092F830300BB192F913300370704700BF02
:105150008C0B0021F0B585B005460C4617461E465F
:10516000FFF742FB40B133463A462146284605B098
:10517000BDE8F04000F09ABA114A936893F88C3079
:105180008BB90DF10F002146FFF7CCFF33469DF997
:105190000F20284600F06CFA05462046FFF79EFFD8
:1051A000284605B0F0BD136821465268284693F999
:1051B000003092F900200092324600F06AFAEBE7E4
:1051C0008C0B00212DE9F04786468C460846089E48
:1051D000154674461946002B40F0C1808542B2FA4C
:1051E00082F245D94AB1C2F1200300FA02FC95408F
:1051F00094402EFA03F343EA0C0C4FEA154EA8B282
:10520000230CBCFBFEF80EFB18CC08FB00F943EAAC
:105210000C43994528D9EB1808F1FF3704D299457A
:1052200002D9A8F102072B44A3EB0903A4B2B3FBF4
:10523000FEFC0EFB1C330CFB00F044EA0344A042CE
:1052400014D92C190CF1FF3304D2A04202D9ACF1CD
:1052500002032C44241A43EA07401EB1D440002321
:1052600034607360BDE8F0874746DDE76346F1E7E9
:1052700092BB431B01214FEA154EAFB2200CB3FB8A
:10528000FEFC0EFB1C330CFB07F840EA0343984579
:1052900061D9EB180CF1FF3004D2984502D9ACF17A
:1052A00002002B44A3EB0803A4B2B3FBFEFC0EFBED
:1052B0001C330CFB07F744EA0344A7424DD92C19D1
:1052C0000CF1FF3304D2A74202D9ACF102032C4403
:1052D000E41B43EA0040C0E7C2F12003954094403C
:1052E00020FA03F12EFA03F34FEA154E9040AFB2C5
:1052F0000343B1FBFEFC0EFB1C10190C0CFB07F862
:1053000041EA0041884522D969180CF1FF3004D2E6
:10531000884502D9ACF102002944A1EB08019BB2F7
:10532000B1FBFEFC0EFB1C110CFB07F743EA01432B
:105330009F420ED9EB180CF1FF3104D29F4202D9E3
:10534000ACF102012B44DB1B41EA004193E76046CC
:10535000E3E76146F7E76046A4E76346B8E78342C0
:1053600006D916B9002108467CE7C6E900E0F9E74E
:10537000B3FA83F78FB9834201D3724508D8BEEBE5
:10538000020460EB030301209C461EB9002169E77B
:105390003846FAE7C6E9004CF8E7C7F1200CBB40F5
:1053A0000EFA07F522FA0CF42EFA0CF1BA401C435F
:1053B00020FA0CF3B8404FEA144901431FFA84FE67
:1053C000B3FBF9F809FB18300B0C08FB0EFA43EAA3
:1053D00000439A4540D9E31808F1FF3004D29A45BA
:1053E00002D9A8F102002344A3EB0A0389B2B3FB5C
:1053F000F9F809FB183308FB0EFE41EA03418E451C
:105400002CD9611808F1FF3304D28E4502D9A8F1D6
:105410000203214443EA0040A1EB0E01A0FB0298E5
:105420004145CE46434602D306D14D4504D201380C
:10543000B9EB020E68EB0403002EA7D0B5EB0E0209
:1054400061EB030101FA0CFC22FA07F3F9404CEA84
:105450000303C6E9003199E74046C5E74346D9E76B
:10546000704770B50024FAF7D3FE05462646E0B231
:10547000854200D870BDFAF7D1FE0134868480F8E9
:105480002660F4E713B50C460DF1030201A9FCF701
:10549000C7FE9DF8033001980BB104B1013002B092
:1054A00010BDFEF775B9704720BF70479142F8B53F
:1054B00003D379219620FEF7B5F8B2FA82F33BB117
:1054C000C3F1200499409A4020FA04F49840214303
:1054D0004FEA124C93B2040C87B2B1FBFCF50CFB03
:1054E000151E05FB03F64FEA0E4E0EEB10408642EA
:1054F00005D9361A96428CBF02260126AD1B04EB55
:105500000141280405FB1211B1FBFCF40CFB141142
:10551000634307EB01418B4205D95B1A93428CBF71
:1055200002220122A41A2043F8BD00280CBF6FF00C
:1055300015000020704700207047072303700020EB
:105540007047002070470020704710B50446FEF7F2
:105550000FFBA04294BF0020012010BD73B5A0F145
:105560000B040E461546E1B20F2903D94F216420E2
:10557000FEF758F80DF1030332460420FAF706FE51
:10558000034608B15821F2E704EB840401A99DF910
:10559000030004F66514A2B2FFF71CF99DF804306D
:1055A0002B70BDF80530A5F8013002B070BD704712
:1055B00008B5FEF71DFDFEF7B7FFBDE80840FFF791
:1055C0002DB808B5FEF75EFDFEF7D6FFBDE8084032
:1055D000FFF758B808B5FEF79DFDFEF7F3FFFFF79C
:1055E00085F8FFF795FC00F00FF90120BDE80840B1
:1055F000FFF75CBD002070474FF42B71722008B597
:10560000FEF710F84FF43871712008B5FEF70AF86C
:1056100040F27E31762008B5FEF704F8002070478E
:1056200040F2D121722008B5FDF7FCFF40F20531B0
:10563000712008B5FDF7F6FF40F2A331762008B5DA
:10564000FDF7F0FF0020704740F2D921722008B525
:10565000FDF7E8FF40F20D31712008B5FDF7E2FFDC
:1056600040F2AB31762008B5FDF7DCFFFFF7F8BE5E
:10567000801A00F3070038B50D46144659B240B2FF
:10568000FAF7B8FD0023287020446C7040B2AB706C
:1056900038BD70B49DF90C501E461346441B002CB7
:1056A000D4BF2A46324670BCFFF7E2BF13B50C46A2
:1056B000114601AAFFF7A0F89DF804309DF90700F4
:1056C0002370BDF80530A4F8013002B010BD08B554
:1056D0000346002043FA00F2D20707D40130042821
:1056E000F8D14FF481717220FDF79CFF20B10128A1
:1056F00002D0022818BF032008BD8900824214BFCF
:1057000060313031C8B270478900824214BF6031C5
:105710003031C8B270478900824214BF60313031E5
:10572000C8B27047037E0BB190F908300B70704718
:1057300007B50A460DF10701FFF7F4FF9DF90730A1
:1057400092F900209A4214BF6FF01500002003B0B8
:105750005DF804FB90F828300BB190F909300B701C
:1057600070472DE9F34106460C4615461F469DF845
:105770002080FFF739F840B143463A462946204693
:1057800002B0BDE8F041FFF791BF0DF107013046CF
:10579000FFF7C8FF43469DF9072029462046FFF73B
:1057A00067FF02B0BDE8F08108B50346002043FA68
:1057B00000F2D20701D541B1002101300428F6D111
:1057C00040F209117120FDF72DFF20B1012802D010
:1057D000022818BF032008BD08B50346002043FA7D
:1057E00000F2D20701D541B1002101300428F6D1E1
:1057F0004FF4A0717620FDF715FF20B1012802D0EB
:10580000022818BF032008BD70470320704700001E
:10581000014B1B68184700BF0C00002107B50B4661
:10582000002102460091034800F014F903B05DF82E
:1058300004FB00BF115800012DE9F047058B044619
:105840002807904611D4022905F0070540F0CD80C5
:1058500020460CF0CEFC78B10138218B042811D8F9
:10586000DFE800F0C3106D85950001290CBF45F0FD
:10587000100545F02005258388F31188BFF36F8F4D
:10588000BDE8F08701F0070AAA4500F0A6800027CE
:10589000B9463E46A368002B00F0BD8041F00801E8
:1058A000218388F31188BFF36F8FA168002900F06E
:1058B000BB800D68002900F0B78033465246204671
:1058C000D1F80480C047002D76D02B6829461D46AC
:1058D000F0E701F007035A1F012A1BD8002221F02C
:1058E0000701062B276889B2C4E9002209D13B468B
:1058F00003E0628B013262831B68002BF9D141F017
:105900000201204621830CF074FC00287BD041F07A
:10591000200177E0042B0AD121F0070189B220464B
:1059200021830CF066FC10B141F020012183218B12
:1059300001F0070AAA4550D00027B946AAE7236913
:1059400021F0070141F00601062DD3F800902183D4
:105950002DD1B9F1000F40D041F00801218388F327
:105960001188BFF36F8F20463949C84729E021F0DD
:105970000701236941F0040189B2042DD3F8049092
:105980002183E6D000274FF0040A3E4682E721F04B
:105990000701236941F0050189B2052DD3F808906C
:1059A0002183D6D000274FF0050A3E4672E7002734
:1059B0004FF0060A3E466DE72B4687E7B9F1000F28
:1059C000D1D14FF04003EFF3118883F31288BFF376
:1059D0006F8F238B23F008032383258BEA062ED5B4
:1059E00025F01003238305F007056669218B002E3F
:1059F000BFF66FAF00232768C4E9003321F0070129
:105A000041F001012183218B4FF0000901F0070AC9
:105A1000AA457FF43FAF002F9BD041F008012183BE
:105A200088F31188BFF36F8F002FC7D03D683946C8
:105A30003346524620460CF008FC2F46F4E7AB06EE
:105A40007FF51AAF25F02003238305F00705FFE655
:105A5000772201012DE9F04F81468B4617461C46FF
:105A6000002595B0387808B9284657E37B1C2528CF
:105A7000039306D05946C8470028C0F24F8301352A
:105A8000FBE1182200210EA80CF0C3FF7B78252B28
:105A90007DD0002398469E469C461E46781C0146B3
:105AA00010F8012B2B2A00F0A18000F29880202A08
:105AB00000F09F80232A00F09F802BB19DF840309A
:105AC00043F040038DF84030B8F1000F05D09DF849
:105AD000403043F020038DF84030BEF1000F05D078
