:1000000048A105203D410000C7BA00001141000091
:100010001141000011410000114100001141000098
:10002000000000000000000000000000693E000029
:100030001141000000000000113E000011410000CD
:10004000E93E0000E93E0000E93E0000E93E000014
:10005000E93E0000E93E0000E93E0000E93E000004
:10006000E93E0000E93E0000E93E0000E93E0000F4
:10007000E93E0000E93E0000E93E0000E93E0000E4
:10008000E93E0000E93E0000E93E0000E93E0000D4
:10009000E93E0000E93E0000E93E0000E93E0000C4
:1000A000E93E0000E93E0000E93E0000E93E0000B4
:1000B000E93E0000E93E0000E93E0000E93E0000A4
:1000C000E93E0000E93E0000E93E0000E93E000094
:1000D000E93E0000E93E0000E93E0000E93E000084
:1000E000E93E0000E93E0000E93E0000E93E000074
:1000F000E93E0000E93E0000E93E0000E93E000064
:10010000E93E0000E93E0000E93E0000E93E000053
:10011000E93E0000E93E0000E93E0000E93E000043
:10012000E93E0000E93E0000E93E0000E93E000033
:10013000E93E0000E93E0000E93E0000E93E000023
:10014000E93E0000E93E0000E93E0000E93E000013
:04015000E93E000084
:1001540053B94AB9002908BF00281CBF4FF0FF312A
:100164004FF0FF3000F00CB8ADF1080C6DE904CE8F
:1001740000F008F8DDF804E0DDE9022304B070477C
:10018400704700BF2DE9F04786468C460846089E16
:10019400154674461946002B40F0C1808542B2FAD8
:1001A40082F245D94AB1C2F1200300FA02FC95401B
:1001B40094402EFA03F343EA0C0C4FEA154EA8B20E
:1001C400230CBCFBFEF80EFB18CC08FB00F943EA39
:1001D4000C43994528D9EB1808F1FF3704D2994507
:1001E40002D9A8F102072B44A3EB0903A4B2B3FB81
:1001F400FEFC0EFB1C330CFB00F044EA0344A0425B
:1002040014D92C190CF1FF3304D2A04202D9ACF159
:1002140002032C44241A43EA07401EB1D4400023AD
:1002240034607360BDE8F0874746DDE76346F1E775
:1002340092BB431B01214FEA154EAFB2200CB3FB16
:10024400FEFC0EFB1C330CFB07F840EA0343984505
:1002540061D9EB180CF1FF3004D2984502D9ACF106
:1002640002002B44A3EB0803A4B2B3FBFEFC0EFB79
:100274001C330CFB07F744EA0344A7424DD92C195D
:100284000CF1FF3304D2A74202D9ACF102032C448F
:10029400E41B43EA0040C0E7C2F1200395409440C8
:1002A40020FA03F12EFA03F34FEA154E9040AFB251
:1002B4000343B1FBFEFC0EFB1C10190C0CFB07F8EE
:1002C40041EA0041884522D969180CF1FF3004D273
:1002D400884502D9ACF102002944A1EB08019BB284
:1002E400B1FBFEFC0EFB1C110CFB07F743EA0143B8
:1002F4009F420ED9EB180CF1FF3104D29F4202D970
:10030400ACF102012B44DB1B41EA004193E7604658
:10031400E3E76146F7E76046A4E76346B8E783424C
:1003240006D916B9002108467CE7C6E900E0F9E7DA
:10033400B3FA83F78FB9834201D3724508D8BEEB71
:10034400020460EB030301209C461EB9002169E707
:100354003846FAE7C6E9004CF8E7C7F1200CBB4081
:100364000EFA07F522FA0CF42EFA0CF1BA401C43EB
:1003740020FA0CF3B8404FEA144901431FFA84FEF3
:10038400B3FBF9F809FB18300B0C08FB0EFA43EA2F
:1003940000439A4540D9E31808F1FF3004D29A4546
:1003A40002D9A8F102002344A3EB0A0389B2B3FBE8
:1003B400F9F809FB183308FB0EFE41EA03418E45A8
:1003C4002CD9611808F1FF3304D28E4502D9A8F163
:1003D4000203214443EA0040A1EB0E01A0FB029872
:1003E4004145CE46434602D306D14D4504D2013899
:1003F400B9EB020E68EB0403002EA7D0B5EB0E0296
:1004040061EB030101FA0CFC22FA07F3F9404CEA10
:100414000303C6E9003199E74046C5E74346D9E7F7
:10042400F0B5414B414A85B0C2F80036C2F80436F3
:10043400C2F80836C2F80C36C2F81036C2F81436C0
:10044400C2F81836C2F81C3602F58052C2F80036DB
:10045400C2F80436C2F80836C2F80C36C2F81036B0
:10046400C2F81436C2F81836C2F81C3600F082F806
:100474002F4C20460DF00BFD00B32569A6682B68B0
:100484000D2143F400532B6020463368294A9847D2
:100494002046736801A9984720B92A68019B5340F4
:1004A4009A040BD54FF05023D3F800340BB1DB077B
:1004B40004D502F011FF204803F06CFA01A800F003
:1004C400BFFE1E4B1B68834200D0FEE74FF4803111
:1004D400002005F0AFFF044600B1FEE706F052F835
:1004E40069469DF8080009F0B8FF009B039D1D4470
:1004F400019B1E8901F0E0FEAF1900F0CDFE00F073
:10050400AFFE03F05BFE84F30B8884F30A88AB59D7
:1005140083F3088884F31488BFF36F8FBFF36F8F5E
:100524007B689847FEE700BF3546526E0080015055
:1005340000E6000011000100D8E900004027002077
:1005440004289ABF024B18566FF01500704700BF7D
:1005540052EF00001FB50C46014601AA04480BF0F7
:10056400C2FD18B9019B2360029B636004B010BDF7
:1005740060E600004FF4C051014806F089BA00BF9C
:10058400E64501207FB51C4683881F4E3F2B2ED1A4
:100594000378022B2BD1C5794DBB092001A902F0A8
:1005A4009DFC002821DB0198294682680AF067FF38
:1005B400054601980AF038FF003D18BF01250A21BD
:1005C40020460BF0D4F9022302A920460296039395
:1005D4000BF0BBF9294620460BF0ABF90A21204663
:1005E4000BF0E3F9002004B070BD0125E7E70A2110
:1005F40020460BF0BCF9022302A92046029603937D
:100604000BF0A3F90821E6E757EF00002DE9F04FBE
:10061400DFF8E4A1F9B038A8DDE9844817461D469F
:10062400DAF800600DF032F9002138A806F044FB36
:100634003CB1B8F1000F04DD4246214638A80DF064
:1006440029F94FF000097B89B7F808809844FB68C2
:100654009844C84521D80DA938A80DF054F9869BB3
:1006640023B1202218460DA90BF08AFA00232A464A
:10067400009339464FF6FF7307A809F00BFF0446B1
:1006840038B928460C9F09F0B1FF87421BD94FF0B7
:10069400FF34204679B0BDE8F08F839BA8EB090BAB
:1006A4009B4528BF9B4649465B462846829A0AF0EA
:1006B400BCFE04460028ECD15A46829938A80DF0B5
:1006C400E9F8D944C5E74FF0FF37DFF830910DF171
:1006D400160305AA06A907A809F02AFFB0F1000825
:1006E400C0F288807BD1BDF816B0BBF1100F18D1D1
:1006F400BDF81440202CCAD123462846069938AAAE
:100704000AF093FE8046002874D1224638A90DA829
:1007140009F05AFF04463A4B1B688342B9D10124BD
:10072400D5E7BBF1010F37D1BDF81430202BAED87B
:100734002846069938AA0AF078FE8046002859D13E
:100744009DF814B0BBF1200F03D94FF0FF38474692
:10075400BDE7D9F800302B4F0393039B9845F4DA97
:100764001DA80DF093F800211DA806F0A5FA7A68DB
:100774001DA8126857F8081B0DF08CF815A91DA8C0
:100784000DF0C1F85A4638A915A80BF0D2F9002883
:10079400DDD008F10108E0E7BBF1200F97D17B1C05
:1007A40095D0D9F80030BB4216DDBDF81430B3F54E
:1007B400807F7FF46CAF2846069938AA0AF035FE8C
:1007C4008046B8B9FFB25946BDF81430009738AA2C
:1007D4000DA800F019F806464FF0FF3777E73CB153
:1007E400074B1B68B34218BFDAF80060344650E781
:1007F4004FF0010844464CE700200020E0E90000E7
:1008040040270020E4E900002DE9F04F1F46ADF534
:100814004B7D6A4B804627A89DF850638A469146D3
:100824001D680CF0F0FF664B8AAA53F8364003EBC0
:10083400C6035B6802941B6802A81C44214630234B
:100844000BF075FD68BB029B8A9A13449C4228D125
:10085400214629AA02A80BF07EFD10BB0DF1B00BB6
:100864005A46214602A80BF076FD0646C8B929A8C7
:100874000CF091F8029B28909C4212D133463246E8
:10088400CDE9006B29A927A80CF07AFF48B927A85D
:1008940006F0A4F928B929A80CF07DF8874228901D
:1008A4000AD027A80CF0B9FF27A80CF0B6FF2846F9
:1008B4000DF54B7DBDE8F08FB7F5807F02D04FF08A
:1008C400FF35F1E7BAF1200FF9D149468AAA27A8E2
:1008D40006F0AAF904460028F1D19DF82733BC2B71
:1008E400EDD152AFDF263D4603900CA80CF0CEFFAD
:1008F40000210CA806F0E0F920220DF207310CA823
:100904000CF0C8FF042203A90CA80CF0C3FF04A92F
:100914000CA80CF0F8FF202EB146A8BF4FF0200918
:100924009DF80F30384601334A4604A9A6EB090660
:100934008DF80F300BF024F9002E4F44D5DC2F46F0
:10094400294600228AAB087813F8016B0132704003
:10095400DF2A01F8010BF6D12B7803F07F032B700B
:1009640017F8016B002EAAD10134BE2CF8D195F8EA
:10097400BE30012BA3D10CA80CF088FF31460CA883
:1009840006F09AF908220F490CA80CF083FF41469F
:1009940020220CA80CF07EFF20220DF207210CA8C7
:1009A4000CF078FF04A90CA80CF0ADFF20220DF286
:1009B400073104A809F008FE054682E7002000205C
:1009C400E4E900005AEF00002DE9F04F574B89B0DD
:1009D400044690F8B8000E461D6809F044FD06A9C7
:1009E4008046C0B202F07AFA00286CD194F8B8704C
:1009F4003146384609F037FD4FF02C0907A9C0B23B
:100A040009FB06F902F06AFA002843D04FF0580BAC
:100A14002C220BFB07F302FB063323441B6913F060
:100A2400100A4CD1314694F8B80005F0C9FD0546CA
:100A3400012812D14FF4807307FB0B920193CDE987
:100A440003AA3B4BCDF808A000935046069B94F8AC
:100A5400B8102244FFF7DAFD054658235F432C23E0
:100A640003FB0677334AE1590698914204EB0703E6
:100A74000AD1DA681B899B1806D28268934203D292
:100A84002D4B1B68AB4222D0CEB1002182680AF004
:100A9400F6FC14E007980AF00DFD054607980AF0E5
:100AA400C3FC582394F8B82002FB039323445A1E32
:100AB400033312F8011FA942A8D19342F9D10125A9
:100AC40006980AF0B1FC284609B0BDE8F08F94F806
:100AD400B83043B3012B0CBF0822FF229045EFD15D
:100AE40058225343E218176A002207922C2202FB71
:100AF400063323441989042307AA19440AF095FCF0
:100B04000028DCD194F8B8300799012B0BBF0B4AAD
:100B1400D7E901234FF082739B18914201D3994284
:100B2400CED90698B1E70222D8E700BF0020002002
:100B3400E65D01203DB8F3964027002000880001BF
:100B44002DE9F84F884691469A460026DFF88CB086
:100B5400234D244C0B9B9E4201D300200FE00B9BA2
:100B640040469F1BB7F5806F28BF4FF480671B4A30
:100B74003B4606EB0A010AF058FC10B10120BDE81F
:100B8400F88F0A993B465A46484671180AF062FCA7
:100B94000028F3D1144BC5F800463E44C5F804467A
:100BA400C5F80846C5F80C46C5F81046C5F81446FD
:100BB400C5F81846C5F81C46C3F80046C3F80446F1
:100BC400C3F80846C3F80C46C3F81046C3F81446E5
:100BD400C3F81846C3F81C46BCE700BF44270120ED
:100BE400008001503546526E009001502DE9F04FBF
:100BF4004FF0000804460F46C1464FF0FF354FF052
:100C0400580B744B95B01E68B8F1010F84F8B88086
:100C140008D9B9F1000F00F0588100202C254FF0BD
:100C24005808D2E004EB080393F8B91000294ED118
:100C34000BFB0843684A404602EB88325A62674A13
:100C440002EB88321A6509F00EFC94F8B810C0B2B1
:100C54000BFB0141203102F041F90121404609F02A
:100C640002FC94F8B810C0B20BFB01414C3102F005
:100C740035F90546204609F0ECFC00BB002220466D
:100C8400114609F014FD824690B9204609F070FD22
:100C940070B10AA809F03AFD09F041FD804670BB25
:100CA40094F8B830D3B9002120460AAA09F0FFFC11
:100CB400012294F8B830234483F8B02007E00122DD
:100CC40094F8B8309042234483F8B020D6D194F8F5
:100CD400B88008F101085FFA88F895E794F8B02025
:100CE400042A04BF012284F8B020012BDBD094F83D
:100CF400B130042BD7D1012384F8B130D3E79DF868
:100D04002F30012B47D1582294F8B830CDF838A0B1
:100D140002FB0343324AD96AD86C914211D094F849
:100D2400B80005F0F5FC831E022B824607D801218A
:100D34002046FFF749FE2B4B1B68984228D15046AA
:100D440008E0998E04230EAA19440AF06EFB0028C9
:100D5400E5D0052094F8B830234483F8B00094F823
:100D6400B8306BB1E21892F8B020012AAFD0042A4F
:100D740023D094F8B020042A02D1012284F8B020B0
:100D8400234493F8B030023B022B98BFC1469EE740
:100D94000128DED1DEE701212046FFF715FE114BC5
:100DA4001B68984218BF052294F8B83008BF9DF814
:100DB4002F20234483F8B020D1E7C14687E72318C6
:100DC40093F8B92082B10130C0B2012884F8B80088
:100DD400F5D979E00020002044A700204427002012
:100DE4003DB8F3964027002093F8B09009F0FB0932
:100DF400B9F1010918BF4FF00109494609F033FB65
:100E040005A9C0B202F06AF8002840F09F800123CF
:100E140005FB09F994F8B810059A18FB01910093A1
:100E2400214440230EA809F035FB8146002840F0F8
:100E34008F8000230DF1120206A90EA809F078FB99
:100E4400002841DB059840F09080BDF812300C2B4F
:100E540040F08980069907AA0AF0E7FA002840F0D2
:100E64008D809DF81C30012B00F28B80E21892F8E3
:100E7400B02008FB03F3023A022A8CBF00220122AD
:100E840005FB02332344197D9DF820209142D0D8DC
:100E94000AD3597D9DF821209142CAD804D3DA8A15
:100EA400BDF822309A42C4D294F8B830059823444D
:100EB40093F8B020012A47D0023A012A02D801222D
:100EC40083F8B0200AF0B0FA00254FF000084FF084
:100ED4005809B8F1010F84F8B88055D90023DFF818
:100EE400E082012B84F8B83040F26C81102200219A
:100EF4000AA80AF050FE0023022B40F083815826F2
:100F040084F8B83006FB0343186A09F0C1FA387153
:100F140094F8B82006FB0242136A5B68BB6094F83D
:100F2400B83003FB06433B60A54B1E6800235827DB
:100F3400012B84F8B83040F26E81002D14BF28468E
:100F4400304615B0BDE8F08F0422B9E70598B9E73B
:100F540005980AF069FAB9F1030FB5D140F201130B
:100F6400A4F8B030B0E74FF0030905980AF05CFA32
:100F7400B9F1000FEFD194F8B80024E74FF001095C
:100F8400F3E74FF00709F0E704EB080292F8B930F1
:100F9400002B40F00E810AA809F0B8FB92F8B0309B
:100FA400042B8DF82F3008D8012B08D800F0B3801B
:100FB4004FF0FF3382F8B030ADE0052BF6E709FBC4
:100FC400084319464046DA6C2C310BF0DFF801284F
:100FD400054640F0A080014694F8B80009F043FAB1
:100FE40007A9C0B201F07AFF002800F09C80002518
:100FF40007980AF019FA94F8B80007A9002800F035
:10100400D080012800F0C980FF2001F067FFFF2095
:101014004FF000084FF0580BC2460EA901F05EFFD6
:1010240094F8B8300BFB03439B6A534519D094F8EA
:10103400B82041460BFB0242526A079802EBCA02EF
:101044005268039302920AF01AFA029A039B90449C
:10105400A845C0F0AB80D4F8B430B5FBF3F503FB7E
:101064000538D4F8B40009F0B1FA582394F8B8203C
:1010740003FB0242536A926A1968013A03EBC20302
:1010840000225D689C462A449042A3F10803F8D8E4
:10109400DCF800300798591A0AF0F1F900232046C9
:1010A400079A0E99CDF804800093FFF749FD054691
:1010B40088BB079805F0B6FA054660BB4FF0580A9E
:1010C40094F8B80042460AFB0043196A0BF06CF826
:1010D400054600BB94F8B83001460AFB03431B6D78
:1010E4000E985A680AF0CBF994F8B8300AFB034317
:1010F400D3E91423013B52F8331002EBC300136805
:101104004268C91A0E980AF0BAF907980AF08CF9DD
:101114000E980AF089F994F8B830234493F8B03063
:10112400FF2B46D1FEE794F8B830079809FB034338
:10113400B3F834809B6B0EAA9844414604230AF00A
:1011440074F900287FF453AF94F8B830BDF8382010
:1011540009FB0343DD8E46F608139A42079819D11A
:10116400BDF83A309D427FF442AF04230EAA05EB4A
:1011740008010AF05AF900287FF439AF46F607133C
:10118400BDF838209A427FF432AFBDF83A301D449E
:1011940045442DE7002DF1D029E701F09FFE0820FA
:1011A40036E7042001F09AFE022031E70AF1010A31
:1011B4003BE794F8B88008F101085FFA88F888E6FC
:1011C40040270020234493F8B910B1B993F8B03004
:1011D400012B07D020460AAA09F069FA054600281F
:1011E4007FF4A4AE00212046FFF7EEFB0646D8F8B4
:1011F400003083427FF49AAE002594F8B83001336E
:10120400DBB26EE6E21892F8B920002A3FF477AE1A
:101214000133DBB270E6E21892F8B9205AB907FB41
:101224000343D86C0AF000F994F8B83007FB034381
:10123400186A0AF0F9F894F8B8300133DBB277E6AB
:1012440038B5064D0446BC22002128460AF0A3FC0A
:1012540021462846FFF7CAFC38BD00BF442B0120B5
:10126400BFF36F8F72B600234FF0FF30094A03F1CA
:1012740020010133102B42F82100F8D100234FF054
:10128400FF30044A03F160010133102B42F82100BE
:10129400F8D1704700E100E038B501224FF0FF3487
:1012A40000251A4B29465A60C3F84843C3F808433B
:1012B40003F580535A60C3F84843C3F80843A3F5C1
:1012C4005043C3F800558022C3F8084310480AF07D
:1012D40062FC802229460F480AF05DFC0E4B8022F6
:1012E400C3F800552946C3F808430C480AF053FCD8
:1012F400802229460A480AF04EFC0A4BC3F80845E6
:101304004FF05023C3F8084338BD00BF00400150DC
:1013140080800050808100500090005080900050E8
:1013240080910050007001502DE9F043079D15B9DC
:101334001560002012E00324B5FBF4F404EB440729
:10134400BD4218BF0134B4F1804F09D2A400013466
:101354008C4200D838B96FF00B001460BDE8F083FC
:101364004FF0FF34F7E704460021DFF8B4E0B94258
:1013740003F1030C04F104062BD3A942274623D21C
:1013840001F1010CAC451F7828BF002324494FEA22
:10139400A70E38BF5B7811F80EE0AC4584F800E086
:1013A40001EB131E2EBF3D239B0003F03C034FEAC9
:1013B400071738BFCB5C07F030071EF80770A3701F
:1013C4003D2367703746E3700023381A10603B7082
:1013D400AFE71CF8034C1CF8023C4FEAA4091EF8C2
:1013E400099024011CF8018C04F0300406F8049CD4
:1013F4000EEB131919F804409B0006F8034C03F094
:101404003C030EEB9814E35C08F03F0806F8023C3A
:101414001EF80830344606F8013C03316346A6E75B
:10142400F0F000002DE9F04300273C463D46DDF88E
:101434001CE0DFF8288175451FD3E4BB002014604D
:10144400BDE8F0830136764533D013F806C0BCF10D
:10145400200FF7D0AEEB0609B9F1010FA6EB050595
:101464000DD0BCF10D0F0AD103EB060999F80190D8
:10147400B9F10A0F6ED1751CDDE72E46E3E7BCF126
:101484000A0FF8D02DB9BCF13D0F05D10137022F59
:101494000DD96FF01500D3E71CF0800FF9D118F8BF
:1014A4000C507F2DF5D03F2D01D8002FF1D1013400
:1014B400E1E73546C1E74FF0060C04F00706E408FF
:1014C4000CFB06F60CFB04F40736E41B04EBD60411
:1014D40070B18C420CD80027014603263C46DFF845
:1014E4007CE0DFF87C801D449D4205D10C1AA5E701
:1014F4006FF00B001460A3E713F8019BA9F10A0C29
:101504005FFA8CFCBCF1160F04D848FA0CFC1CF0F2
:10151400010FE9D01EF809C00134BCF1400F08BF27
:10152400013E0CF03F0C042C4CEA8717DCD17EB151
:101534003C0C012E0C7002D101310024D4E7022EA0
:101544004FEA17244C7016BF8F7002310331F4E751
:101554003446C9E7002DA2D09BE700BF70F000001D
:10156400F6FFBFFF2DE9F047058B04462807904698
:1015740011D4022905F0070540F0CD80204609F07A
:1015840006FC78B10138218B042811D8DFE800F07B
:10159400C3106D85950001290CBF45F0100545F079
:1015A4002005258388F31188BFF36F8FBDE8F0878A
:1015B40001F0070AAA4500F0A6800027B9463E4676
:1015C400A368002B00F0BD8041F00801218388F35B
:1015D4001188BFF36F8FA168002900F0BB800D68EC
:1015E400002900F0B780334652462046D1F80480E3
:1015F400C047002D76D02B6829461D46F0E701F040
:1016040007035A1F012A1BD8002221F00701062BC9
:10161400276889B2C4E9002209D13B4603E0628B02
:10162400013262831B68002BF9D141F0020120468C
:10163400218309F0ACFB00287BD041F0200177E046
:10164400042B0AD121F0070189B22046218309F035
:101654009EFB10B141F020012183218B01F0070A88
:10166400AA4550D00027B946AAE7236921F007010B
:1016740041F00601062DD3F8009021832DD1B9F154
:10168400000F40D041F00801218388F31188BFF393
:101694006F8F20463949C84729E021F007012369A3
:1016A40041F0040189B2042DD3F804902183E6D0DB
:1016B40000274FF0040A3E4682E721F00701236920
:1016C40041F0050189B2052DD3F808902183D6D0C5
:1016D40000274FF0050A3E4672E700274FF0060A3E
:1016E4003E466DE72B4687E7B9F1000FD1D14FF0A5
:1016F4002003EFF3118883F31288BFF36F8F238BDA
:1017040023F008032383258BEA062ED525F0100346
:10171400238305F007056669218B002EBFF66FAFA2
:1017240000232768C4E9003321F0070141F00101D7
:101734002183218B4FF0000901F0070AAA457FF4A9
:101744003FAF002F9BD041F00801218388F311881B
:10175400BFF36F8F002FC7D03D68394633465246DA
:10176400204609F040FB2F46F4E7AB067FF51AAF9D
:1017740025F02003238305F00705FFE617AE0000DC
:101784002DE9F04F82464FF000098DB01D46531EDF
:1017940001910393039B58785C1C252819D10020E0
:1017A4004FF0FF381E464446034602360290317815
:1017B4000396392955D81F2914D8002900F0F1813E
:1017C40001992520D04701993078D04709F10209C1
:1017D400E0E7002800F0E5810199D04709F101090B
:1017E4000394D7E7A1F12002192AE9D801A757F8F1
:1017F40022F000BF61180000C5170000C5170000E3
:1018040061180000C5170000E1180000C5170000AA
:10181400C5170000C5170000C51700002D190000EA
:1018240061180000C517000041190000ED18000000
:10183400C5170000FB1800001B1900001B1900004D
:101844001B1900001B1900001B1900001B190000C4
:101854001B1900001B1900001B1900000846013663
:10186400A5E7582900F0EE80A1F16302D7B2172F43
:10187400A6D8172AA4D801A757F822F0EF1A000017
:1018840067190000C5170000C5170000C517000040
:101894004719000067190000C5170000C5170000AC
:1018A40047190000C5170000C5170000C517000040
:1018B400231A0000C5170000C5170000C31A000052
:1018C400C517000067190000C5170000C517000000
:1018D400231A0000C51700004719000025200199AC
:1018E400D04709F1010955E7029A4FF0000802F0C8
:1018F400FE020292B3E7002C0DDAB8F1000F0DDA04
:10190400029A002A00F045810A2224EAE47402FBC8
:101914000414303CA3E7B8F1000FF5DB0A2202FB04
:101924000812A2F130089AE7B8F1000F55F8042B19
:1019340080F23181002A80F23081544202220292E4
:101944008DE7682903D1682B06D1482387E76C29E2
:1019540002D16C2B00F02381002B7FF431AF0B46B6
:101964007DE77A2B06D1752955F8046B14D14FF015
:10197400000B0CE06C2BF6D04C2BF4D1073525F082
:101984000703752903F10805D3E9006B06D1202864
:101994003ED1864F013C09E04FEAE67BBBF1000FE4
:1019A400F5DA7642824F6BEB4B0B013C0DF12D03C4
:1019B400059300230493304659460A220023FEF778
:1019C400C7FB049B303203F1FF3CCDF810C0DDF8B7
:1019D40014C00CF8012DCDF814C0B4465A46BCF11D
:1019E4000A0F72F1000206468B46E4D2C3F1010BE2
:1019F40030330DEB0306B8F1000FA6F104066DDADF
:101A0400029BD9077CD4A8EB0B03A4EB0B0413E0D3
:101A14002B280ABF674F684F04F1FF34C6E77029CB
:101A24000FD155F8042B0023FAB96FF004034FF0DB
:101A3400050B624E053C604F029A92076FD4A04694
:101A440065E078216C2B03D1002355F8042B08E0C2
:101A54004C2BF9D1073525F007031D465B6855F873
:101A6400082B232825D1880621D5554F023C002672
:101A740001F06001A1F1390B0DF12D0E02F00F01FF
:101A8400092988BF594430310EF8011D102A4FEA44
:101A9400121141EA03714FEA131073F1000306F1C6
:101AA400FF3C08D2C6F1010B06F13003A1E7454F14
:101AB400DCE7414FDBE766460A460346DEE755F8B6
:101AC400046B30460AF02EF8B8F1000F834602DBAF
:101AD4004045A8BFC3464FF00008374FA8EB0B039F
:101AE400002B92DDA4EB0804A6E755F8043B4FF065
:101AF400010B8DF81830013C4FF0FF3306AE9AE726
:101B0400A046EBE7029320200199D047029BB8F14D
:101B14000108F7D524EAE472013C9144A41AB846BA
:101B240006E0049302920199D047029A049B9046DE
:101B3400424612F8010B0028F3D11A46013A15D592
:101B4400002BACBFC7EB03077F425B46013B15D5B7
:101B5400BBF1000FA8BF5F4426464F44013E14D595
:101B6400002CA8BF3F1907EB080913E6049302925F
:101B740030200199D047049B029ADFE70293019930
:101B840016F8010BD047029BE0E701992020D047CB
:101B9400E4E70122D3E6904661E614465FE64C236F
:101BA4005DE648460DB0BDE8F08F00BF43F100008C
:101BB40041F1000045F1000005F200004DF1000084
:101BC40047F100004AF10000054B03EB8000D0F818
:101BD400003223F0E04343F04053C0F80032704732
:101BE4000025845038B54FF02003EFF3118583F3BB
:101BF4001288BFF36F8F01211A4B1B4AC3F80015DB
:101C040002230020C2F8D036FFF7DEFF0846FFF7B4
:101C1400DBFF7E237F20C2F80C37C2F83C39134B1C
:101C2400134CC3F818010020C4F8040EC4F8080EBD
:101C340004F54824C4F81001C3F82401C3F82C01A6
:101C440003F5FF1303F58053C3F8A002C2F8041789
:101C5400C2F80419C2F8001B85F31188BFF36F8F13
:101C640038BD00BF0010005000400050002000505C
:101C740000900350052370B5174D184E2C7801348D
:101C8400B4FBF3F303EB8303E41A0AF068FA144A8F
:101C9400144B117851B156F82410401A072805D86E
:101CA4001A780AB901221A70002070BD0021197037
:101CB4004FF05023D3F8140138B1C3F81411D3F8FA
:101CC40014312C700CB9012313702C780AF047FAE4
:101CD40046F824000120E8E7E85E0120002C0120FA
:101CE400E75E0120E65E012048B1054B054A1B680A
:101CF400B3FBF2F35843044B43F001031847704716
:101D04005C21002040420F00D0E9000005F0FCB83F
:101D1400F0B40C4B0C4E5F6A0C4BB34203D36FF020
:101D24008500F0BC70475D68BD4209D31C693CB1B5
:101D340095F802C00579AC4502D12346F0BC18479A
:101D44002433EAE7142C0120602400203C240020E2
:101D54002DE9F04705460E461746124CDFF8488039
:101D6400DFF84890444503D36FF08500BDE8F08761
:101D74006268D9F824309A4212D3A36983B1907867
:101D84002979884205D13A4631462846BDE8F047CC
:101D940018475279012A03D13A46314628469847D2
:101DA4002434DFE73C24002060240020142C01208C
:101DB4002DE9F04105460E4617460A4CDFF8288007
:101DC400444502D36FF0850009E063690BB92434FC
:101DD400F6E73A463146284698470028F7D1BDE849
:101DE400F08100BF3C2400206024002010B504468C
:101DF40009F01BFF10F1780F00D050B9204609F00C
:101E0400A5F9044AD2F8C43023EA00030020C2F83A
:101E1400C43010BD142C012008220021014809F00F
:101E2400BABE00BFCF2C012070B50B4B0B4CA342A4
:101E340001D3002070BD0022196A1E7F0439D5B277
:101E4400AE4201D82433F2E7013211F83250854210
:101E5400F5D10120EEE700BF3C24002060240020DF
:101E640008B509480378C3F341130A3350F8233003
:101E74003BB100F1080200F110019847C043C00FC4
:101E840008BD1846FCE700BF142C012004282DE9E6
:101E9400F14F04460F46DFF8A89017D1FFF7BCFFB7
:101EA400284B93F8B930CBB100F0F2FD264DDFF8A2
:101EB40094A04D4534D24FF00008D5F820B02B7FC4
:101EC4005FFA88F6B34218D82435F2E7052811D111
:101ED4001C4B93F8B9300BB100F0DAFD1A4D4D45A7
:101EE40023D3184B1B6A43B33946204601B0BDE8DF
:101EF400F04F18470128F1D1D2E70BEBC606307931
:101F040009F093FE0246307909F020F9DAF8C4307A
:101F1400002A23EA0003CAF8C43008F10108CEDA23
:101F24000022084B83F8B920D8E7EB681BB13A4686
:101F34002146284698472435D1E701B0BDE8F08F03
:101F440060240020142C01203C24002073B5C4B26A
:101F540063060D468DF8074007D02046FFF764FF5F
:101F640078B10D4B93F8BA0058B120460A4E55B1DA
:101F740002F01AFFF3691BB108200DF1070198471D
:101F8400012002B070BD02F037FFF369002BF7D0D7
:101F940009200DF10701F2E7142C012073B58678AE
:101FA4001D4C8DF800600379427943EA0223ADF8B1
:101FB4000230C378304603F003038DF8043009F08F
:101FC400C5F8D4F8C4300546184208D0304600F0AD
:101FD40041FD3046FFF70AFF962007F0C1FD684631
:101FE40002F0BEFE10F1780F03D010B1002002B051
:101FF40070BD9DF8000002F03BFF10F1780F01D096
:102004000028F3D10120D4F8C43084F8B9002B435C
:10201400C4F8C430EBE700BF142C01202DE9F047CD
:10202400924D0446AB690E461746C3B9207800F0BA
:102034001F00012876D0022800F0DC8000BB94F950
:1020440000103A68002963782EDA062B0CD0082B8E
:1020540025D0ABB9537001231370022303E19847D1
:102064000028E3D100200DE06388190A0A1F012A21
:102074008C4605D9072903D8DAB26B6A1C781CB9D7
:102084006FF01500BDE8F0875D78654503D18242A5
:1020940000F0E48001302344F0E71B78E3E095F896
:1020A400BA3013700123DEE0052B11D0092BE7D1E0
:1020B40063886E6A002B32D1FFF7AEFE638885F821
:1020C400BA30EB69002BCDD0032069499847C9E7A2
:1020D400A07802F033FE0028C4D0D1E77378042B33
:1020E40010D0052B11D0022B04D177796388BB4221
:1020F40008BF012033781E443378002BEED100282A
:10210400BED0D9E796F80380F4E76388BB42F1D1E7
:10211400B8F1000FEED13046FFF740FFEAE7FF27A2
:10212400B846E9E795F8BA30D7F800C0002BA7D035
:102134006F6AA2883B4694F804E0187800289FD080
:102144005978022904D193F80480F04500F2928072
:102154000344F2E78CF800308CF80130316081E7F9
:102164001F4493E00B2B8BD100264FF0FF08B2469F
:10217400C14606E07B78042B0FD0052B21D03B7899
:102184001F443B78002BF5D1EB6913B1514607206E
:102194009847002E7FF466AF72E797F80280A38811
:1021A40097F803909845EAD163889945E7D1B8F147
:1021B400070F1CD805EB0803BA46012683F8BB9029
:1021C400DDE7A3884345DAD1A3784B450AD0BE782E
:1021D400304600F03FFC3046FFF708FEB0FA80F6C8
:1021E4007609CCE73846FFF7D9FE0646C7E7BA4674
:1021F4000026C4E794F900206378002A18DA002B3B
:102204007FF43EAF24793F6863060AD02046FFF787
:102214000BFE00283FF434AF95F8BA30002B3FF49E
:102224002FAF3946204602F007FE00237B7014E7E7
:10223400012B08D0032B7FF423AF6388002B7FF49A
:102244001FAF012103E0618800297FF419AFA08842
:10225400FFF77CFE00287FF405AF11E702293B60FD
:102264007FF41BAF5B883360FCE600BF142C0120B5
:10227400CE2C012094F9000063780028BFF672AFD9
:10228400002B3FF467AF0A2B7FF4FAAE3B78002BA8
:102294003FF4F6AE797804297FF462AFB9788A42C4
:1022A4007FF45EAF072A8EBF0023521992F8BB3029
:1022B4008CF80030F6E600BF70B5164D95F8B830CE
:1022C400FBB102F01BFD002822DB00F0E1FB00243F
:1022D400D5F8C430E6B2E340DA0714D4D5F8C430F4
:1022E40004F11002D340DB0705D546F08000FFF768
:1022F4007DFD00280CDB0134102CE9D1002385F886
:10230400B830002004E03046FFF770FD0028E5DA1D
:1023140070BD00BF142C012013B5134C237DCBB921
:10232400E26801AB8020A168019208F01EFF019AC7
:10233400A3681344A360E3689B1AE36043B93AB10A
:102344002369E2889A4203DD9B0601D101232375A8
:1023540002B010BD002380201A461946237502B02E
:10236400BDE8104002F0AEBD142C0120002330B5AE
:1023740085B002460D460193002858D1002935D175
:1023840008220B460DEB020109F068FC002804DA70
:10239400802002F009FD05B030BD2A4C029AC4E940
:1023A40003552260039ABDF80E30626004F13802CE
:1023B400A2609DF908202575002A0ADB802B04D928
:1023C400802002F0F1FC0020E3E713B1C4E90333F9
:1023D400E1E7FFF745FD0028DAD0E28823699A4255
:1023E400D4BFE260E360FFF797FFD4E7154C01AB7D
:1023F400D4E90215002D04DC09F030FC0028CADA07
:10240400C6E72A4609F02AFC0028D9DB019AA3680A
:102414001344A360E3689B1AE360002BBBD104F16F
:102424003803A360FFF71CFD0028DCD1B0E7802847
:10243400B1D1044BDA68002AD5D11B7D002BD2D14F
:10244400A9E700BF142C0120054B064A58629A6282
:10245400054A0020DA62054A1A63054A9A61704700
:10246400142C012021200000151D0000B51D0000C2
:10247400551D000010B5084B93F8B84034B900F06E
:10248400D7F830B1FFF7E0FF204610BD6FF07700BA
:10249400FBE74FF0FF30F8E7142C01202DE9F3415E
:1024A40004463B4D4FF0FF324FF0FF33394806F0FE
:1024B400F1FE95F8B860002E67D137482C62E861C8
:1024C40002F01AFE02F0E8FB041E42DB00F004FBFB
:1024D400041E3EDB40236846ADF802308DF80460EC
:1024E4008DF8006002F03CFC041E32DB8027684655
:1024F4008DF8007002F034FC041E2ADB30462749B4
:1025040002F0E6FD041E24DB3846244902F0E0FD17
:10251400041E1EDB224CDFF88C80444520D30020AF
:1025240002F0A6FC041E14DBD5F8C430802043F06E
:102534000103C5F8C43002F09BFC041E09DBD5F886
:10254400C430002443F48033C5F8C430012385F833
:10255400B830104806F018FF204602B0BDE8F081FC
:102564000026276A227FF3B29A4201D82434D4E7A2
:1025740007EBC30257F83310107902F0A9FD0136B6
:102584000028EFD04FF0FF34E3E76FF07704E0E783
:10259400142C012034230020911E0000712300001C
:1025A4003C2400206024002030B51F4B8BB005AACA
:1025B40003F11005144618685968083303C4AB4284
:1025C4002246F7D11B7810222370002101A809F0BC
:1025D400E2FA12220021154809F0DDFA102101A8BF
:1025E40009F035FC00281BDD0828B8BF082001AB22
:1025F40009381A1800200D4912F8013F0AAC04EBFF
:10260400131403F00F0328336B4414F8144C13F819
:10261400143C013008280C704B7001F10201EBD11D
:1026240002480BB030BD00BF62F10000E95E01203A
:102634002DE9F04F634C85B000264FF0011BB146E5
:102644003546B24623782BB95F4B02349C42F3D112
:102654005C481CE06378052B05D8DFE803F07904B7
:1026640003790725A24623781C44EBE7E378002B83
:10267400F9D1A37873B109F101095FFA89F9F2E795
:102684006A68944209D024359D42F9D3002005B0EC
:10269400BDE8F08F4D4D4E4BF6E7AB68002BEAD00A
:1026A400494620469847E6E7002DEFD00023012154
:1026B4002A7F9342EAD22A6AA77802EBC3021079EE
:1026C400874201D00133F3E70127E0785FFA87F806
:1026D40000F003008DF80C00207994F805C040EA5E
:1026E4000C20ADF80A0094F90200002825DA07F15D
:1026F400100001FA00F010EA0B0F25D148F0800019
:102704008DF8080002A8CDE9003209F076FADDE977
:1027140000320121C0B99DF8083013F0800FA37076
:1027240013710B461DBF08F110085FFA88F801FA0F
:1027340008F3BB404BEA030B95E701FA07F010EAF4
:102744000B0F01D14046DBE70137102FBDD1B9E7AC
:10275400032E1DD1FFF728FF074668B109F0E2F9FF
:10276400804648B11B4809F0DDF9804504D1424652
:102774003946A01C09F004FA6FF002012378091B02
:10278400E21804EB5303D14213D50136F6B26AE7DB
:10279400002EF1D1BAF1000F3FF478AFA4EB0A0395
:1027A4008AF80230C3F307238AF803308AF80490C6
:1027B400EBE74FF0000002F8010C13F8010902F8EE
:1027C400020DE0E758230020392400203C24002097
:1027D4006024002062F10000094B00211A4610B564
:1027E4001C78844204D15C6814B102EB811010BDE2
:1027F4000131042903F14003F2D10020F7E700BFBF
:10280400DC2C01202DE9F34150F8283C0446103318
:1028140010F82C6C10D1036950F8202C99073CD582
:1028240002BB13F0040304D11A461946304608F0DB
:102834009CFC002344F8283C54F8283C10330ED068
:1028440054F8185C5DB154F81C7C54F8148C0BF0EB
:10285400A1FB00284CD021462D480BF075FC02B09A
:10286400BDE8F08150F8241C01AB304608F07DFC33
:1028740010B16FF01503DDE7019A54F8243C1344BA
:1028840044F8243C54F8203C9B1A44F8203C54F867
:102894001C3C134444F81C3CCEE750F8241C01AB08
:1028A400304602F08BFB0028E3D1019D54F8243C10
:1028B4002B4444F8243C54F8203C5B1B44F8203C53
:1028C40054F81C3C2B4444F81C3C002DB1D0304639
:1028D40002F018FCB5FBF0F303FB1055002DA8D152
:1028E40054F8203C002BA4D0304602F0AFFBA3E701
:1028F40044F8180CA4F1100006F0B6FD54F8283C76
:102904008C33ACD0424639463046A847A7E700BFCF
:10291400602400204B1E012B73B506460D460FD8CC
:10292400FFF75AFF044668B9012D09D101AB012212
:1029340030460DF1030102F041FB019B002BF5D160
:1029440002B070BD0BF026FB04F12C0108B1012D7F
:1029540005D1084602B0BDE87040FFF753BF0348F5
:1029640002B0BDE870400BF0EFBB00BF6024002054
:102974002DE9F74F064615469846019108F03BFCB1
:10298400044600285CD14FF02003EFF3118A83F34F
:102994001288BFF36F8FDFF8B0B0002200235846CF
:1029A40006F082FD70B9DFF8A490A70109EB841446
:1029B400636813F1100F14D10193584606F054FDC7
:1029C400019B06E00134042C0BF1400BE5D16FF0C0
:1029D4000B038AF31188BFF36F8F184603B0BDE869
:1029E400F08F019B2061C4E902350C9B3046636182
:1029F4000D9B09F80760A3616FF00F03C4F83C80D6
:102A0400636002F07FFB58B1304602F07BFBB5FBFC
:102A1400F0F303FB10551DB1E36B43F00403E363D0
:102A240018F0020F07D007F12C01094849440BF0B4
:102A34008BFB0023CDE7304602F008FB0346C8E7D2
:102A44006FF00F03C9E700BFF82C0120DC2C012034
:102A54006024002010B54FF02003EFF3118483F3BA
:102A64001288BFF36F8FFFF7B7FE50B1436810337E
:102A740007D16FF08B0300F12C01436003480BF086
:102A840063FB84F31188BFF36F8F10BD60240020B3
:102A940070B504250E4C4FF02003EFF3118683F339
:102AA4001288BFF36F8F6368103307D16FF08B0305
:102AB4000848636004F12C010BF046FB86F311888F
:102AC400BFF36F8F013D04F14004E4D170BD00BF3A
:102AD400DC2C01206024002070B50025094C0A4E2E
:102AE400314620460BF013FB0122A4F110001146DD
:102AF40001350BF0EEFA042D04F14004F0D100206E
:102B040070BD00BF082D01200928000070B50446DF
:102B14000E4601791248154608F04AFBE8B194F9CB
:102B240000206378002A11DB202B04D0222B09D04B
:102B34006FF0850005E007222968103809F020F8B5
:102B4400002070BD638800F8093CF9E7212BEFD120
:102B54000723103828603360F2E76FF01200F0E7C3
:102B6400DC2D0120014608B5034808F02EFB10B106
:102B7400012300F8073C08BDDC2D01200123016975
:102B840081F82B300B6833B191F829301BB102481E
:102B940008310BF0D9BA7047602400200123016981
:102BA40081F82A300B6833B191F828301BB1024800
:102BB40008310BF0C9BA7047602400200021034695
:102BC4000B4A0185106883F87C10586790889279C5
:102BD400A3F8780083F87A2083F87B104022A3F8C6
:102BE4007E1083F8801003F12C0008F0D4BF00BFDE
:102BF400C0E9000038B5056995F87E0070B195F814
:102C04007F3063B985F82830286F08F020FA04462D
:102C140005F1180103480BF097FA204638BD00204F
:102C2400FCE700BF6024002013B504698DF8071089
:102C340094F87E308BB194F87F3073B90DF10701AD
:102C44000122206F84F8283008F001FA014630B1DF
:102C54000A4804F118010BF077FA02B010BD012202
:102C6400206F08F044FA0028F7D00122206F0DF1FC
:102C7400070108F0ECF90028EAD1EEE7602400200F
:102C8400F0B5C36E05465B6885B01B6A1F7D384688
:102C940008F0B1FA0646D8B94FF48062A86D03A9CA
:102CA40008F0F4F9044698B18306A5F118032E74CC
:102CB4000193084B08BF00F1FF34039900932246A7
:102CC40002233846FFF754FE2146A86D08F0FAF9AE
:102CD40005B0F0BDDD2C0000012310B582F82830CA
:102CE400136814463BB192F82A3023B1084802F124
:102CF40008010BF029FA236F9A681B699A4206D0DF
:102D040004F118010248BDE810400BF01DBA10BDD3
:102D140060240020002310B50469C4F888300C4BEB
:102D2400C4F88400596804F1880269B9C3E900222F
:102D340004F1080007490BF0EAF904F11800064908
:102D44000BF0E5F9002010BD0A605A60F0E700BFFF
:102D5400DC2D012025B20000852C000030B54FF495
:102D640000334268056942F2A10085B0CDE9010350
:102D7400002385F87D30106AADF80C100A22007922
:102D840001A908F0F2F9054C95F87D3023B901202A
:102D94000BF013FB013CF7D105B030BDA186010057
:102DA40073B5144602F12C060A1E05461DDD314694
:102DB400E06E08F04CF9012384F8293023683BB114
:102DC40094F82B3023B10E4804F108010BF0BCF940
:102DD400E16E4B684A699A1ACB699B1A3F2B04D857
:102DE400012384F8803002B070BD064B402200936A
:102DF4003146012328460194FFF7BAFDF3E700BFEB
:102E040060240020A52D000038B50D460146244855
:102E140008F0C3F9044680B3024652F88439691EA7
:102E24005B68052929D8DFE801F02028032025293B
:102E340014F8061C31B91B6A187BFFF7B1FF012394
:102E440004F8063C14F85C3CBBB9012304F85C3C70
:102E540054F8843C8BB114F85A3C73B1A4F17C014E
:102E64001048BDE838400BF06FB91046BDE8384053
:102E7400FFF7A4BE012304F8053C38BD14F8051C73
:102E84000029FAD0002114F8060C04F8051C0028C7
:102E9400F3D01B6A187BBDE83840FFF781BF00BF41
:102EA400DC2D01206024002037B50024084D4FF0AC
:102EB400FF334FF4806228460649009406F00CFC68
:102EC400054928460BF06CF8204603B030BD00BF1E
:102ED4006024002008680520A8F1000070B5114B9B
:102EE4000D461C68DCB1104B196800238B4202DBD1
:102EF4006FF0010070BD224612F8106B864202D0BA
:102F040014460133F2E7E06810B96FF01200F1E7FC
:102F14000AF0BDFF0028F8D000202C60EAE76FF02B
:102F24000C00E7E7E820002044EA000070B588B010
:102F340005460C46C0B269461646FFF7CFFF002887
:102F44001BDB0098C8B1436822680293836801952B
:102F5400CDE903360023CDE906230593C56808F0BF
:102F640063FA6DB12846084901AA09F0C0F8079828
:102F740008B9059B236008B070BD6FF01500FAE72F
:102F84006FF01200F7E700BFC7B40000014807F074
:102F940017B900BFF8EA000038B5044618B90F4B5A
:102FA4000F485B6898476168B1F5683F0FD0B1F589
:102FB400680F0CD00B4DA94209D011F4686107D0F9
:102FC400214609480AF0BDFF00232360656038BD2F
:102FD4001422206808F0DFFDF8E700BFE421002098
:102FE400B1F100002C5F5CA9E432012008B560B3A4
:102FF4004368B3F5683F0ED0B3F5680F18D0144A90
:10300400934220D000684FF0FF324FF0FF3306F0B8
:1030140041F958B115E001220368D3E8EF1F0029F4
:1030240003D1C3E8E02F0028F7D10AD1002008BD5E
:103034000368084A1B7803F5807352F82330002B89
:10304400F4D00548F3E70548F1E76FF4E040EEE714
:103054002C5F5CA900000350E98FFFFFEA8FFFFF9C
:1030640008B520B34368B3F5683F09D0B3F5680FDA
:1030740013D0114A93421DD0006806F085F914E07C
:1030840000220368D3E8EF1F012903D1C3E8E02F2E
:103094000028F7D109D0094808BD00210368084A6F
:1030A4001B7803F5807342F823100020F4E76FF4D3
:1030B400E040F1E70348EFE72C5F5CA9E98FFFFFED
:1030C40000000350EA8FFFFF10B5044618B91D4BEA
:1030D4001D485B6898476368B3F5683F2FD0B3F524
:1030E400680F2CD0194A934219D1236803BB4FF0BF
:1030F400FF324FF0FF332146154805F0E5FF08B9CC
:1031040023681BB90F4B13485B68984714220021AE
:10311400206808F040FD4FF46863636008E0B3F58D
:10312400683F0DD83A2B03D040F6BA629342DED101
:1031340020680AF04EFF636843F03A03636010BDF1
:10314400054AF3E7E4210020B1F100002C5F5CA9FB
:10315400E4320120D7F100003A00003A08B50649EC
:103164004023142205480AF0DEFEBDE80840044965
:10317400044807F097B800BFE42D0120E432012091
:1031840000EB000014EB0000F7B5234E30688368B1
:103194005B6C03B19847306883685B6B002B32D15A
:1031A4001E4C1F4D306883689B69002B2ED0012272
:1031B4000DF107019847012828D1236843B92B68EA
:1031C40023B369681A688B422A6008BF6A60236067
:1031D400144A9DF807001188B1F5007F04D22368D2
:1031E4004F1C0B44178018720A28DBD10020236877
:1031F4001188186059600C494D684DB9C1E9003314
:1032040010802060CDE798470028C9D103B0F0BDF5
:103214002B604B60F4E700BF283701200033012006
:1032240010330120E44501200833012010B5044B7C
:10323400044618688368E1B25B689847204610BD6D
:1032440028370120F8B50546164608464FF02003F6
:10325400EFF3118783F31288BFF36F8F1B490B6859
:103264004BB11B4C62689A4205D000221A60626816
:1032740062B9C4E90033174A136853B987F3118854
:10328400BFF36F8F18460B603360F8BD1360636043
:10329400F1E7D2F804C01C686345146008BF5460A9
:1032A40087F31188BFF36F8F5C680B60A042D8BFAF
:1032B40000F1FF3403F108012246284608F060FCBF
:1032C4000023601C2B550123DEE700BF04330120DB
:1032D400103301200833012037B500241F4B204A46
:1032E400C3E900441F4B204D204803F502711360CD
:1032F400C3F808421960516028600AF0C8FD20B97B
:103304004FF0FF34204603B030BD2046FFF7C6F827
:1033140004460028F4D12868836823B19B6C13B158
:10332400224613499847286883685B6B0BB198471A
:1033340048B1286883689B69002BFAD001220DF1FB
:1033440007019847F4E700220A4B28681A8083682B
:103354009B6A002BD6D09847D4E700BF08330120DE
:1033640010330120183301202837012030E60000F3
:103374008D310000E445012040F6061300202DE9BC
:10338400F043ADF5257DADF80C30DFF8E490394B12
:10339400D9F800101B68384E0822A3EB06080B78F6
:1033A400487001330B7098FA98F34B808B8802278E
:1033B4005BBA8B8007F005FE42463146ADF810003B
:1033C40007F0FFFD2D4D40BA2B681FFA88F4ADF8C5
:1033D4001000022103A85B68984704F10A035BBA52
:1033E4000DF11201022206A8ADF8123008F0C8FB54
:1033F400D9F8001008220DF11A00ADF8127008F087
:10340400BFFBBDF8120006AB083080B2424631461D
:10341400ADF81200184408F0B3FBBDF812303A4678
:10342400E01880B206ABADF8120004A9184408F005
:10343400A7FBBDF8123005AA3B449BB2ADF812308D
:10344400009340F2691106AB49A8FDF76DFF059999
:103454002B68ADF8121049A85B6889B298472B68AD
:1034640001215B68064898470DF5257DBDE8F0838A
:103474007037012040370120FB5E012074370120A2
:1034840004F20000F0B50C68164F85B002380D4602
:10349400C4F580610090144B381903AA0131FDF77B
:1034A400C1FF0446D0B92B68039A1344022B2B6046
:1034B40011D93E88023B76BAB6B29E420BD132464F
:1034C400B91C07F07EFD30B9022E04D92B689A1E70
:1034D4002A60FC540124204605B0F0BD4FF0FF34AF
:1034E400F9E700BFFC5F0120FF63012007B5CDE9C8
:1034F40000016946024808F028FA03B05DF804FBAD
:103504004037012038B505460A4C0A21204608F008
:103514002EFA02210848FFF7E9FF2946204608F061
:1035240004FA20460A2108F040FABDE83840FFF7C3
:1035340023BF00BF4037012057EF0000002307B529
:10354400054A0093022102F58073044808F02FFA1B
:1035540003B05DF804FB00BFFB5E0120403701208F
:103564002DE9F04F07290446A9B040F2B48003784E
:1035740013F0FD0740F0AF804388A1F108055BBA62
:103584009BB2AB42C0F0A780A64B00F108061860BE
:1035940083885BBA8380FFF7D1FFA088012840F0BD
:1035A400D081E47944B1012C00F09880082029B03E
:1035B400BDE8F04FFFF7A6BF01469B4808F0D7F9D6
:1035C40006219A48FFF792FF0521974808F0C0F9B1
:1035D4002546DFF85C82DFF85C920026964F00E017
:1035E40001263146284606F03EFF07A9C0B2FFF780
:1035F40075FC044600285FD13146284608AA02F02B
:10360400C9FF012806D12023214607980DEB0302A8
:1036140007F00BFF089BD8F800404B4514D1314606
:10362400284602F0CDFF044601280DD14023002195
:10363400019318AB00930846CDE90311079B02914F
:1036440008AAFCF7E3FF0446079807F0EDFE3B6881
:10365400A34231D11421744808F089F9052177482F
:10366400FFF744FF2946704808F063F904217448C1
:10367400FFF73CFF31466C4808F05BF907217148BD
:10368400FFF734FF0E9B40210293BDF836306E4A9B
:1036940001939DF8353018A800939DF8343000F05C
:1036A40059FF18A808F03EFA014618A8FFF71EFFB4
:1036B40014215D4808F079F9002E91D00DB93546F2
:1036C4008BE70521584808F061F90121564808F0B4
:1036D4006CF9FFF751FE29B0BDE8F08F294630465A
:1036E40007AB08AA069700F043FA074600B3032481
:1036F4000A214D4808F03BF902215448FFF7F6FE31
:103704002146494808F011F944B903215048FFF70C
:10371400EDFE504B4448196808F00BF90A21424861
:1037240008F043F9FFF728FE069807F07DFED2E77C
:10373400079B9D42DBD14FF0FF3A3A465546B946C6
:10374400B846179808AB90421CD16B1CCFD0B8F187
:10375400000FCCD03846FCF7F3FE06A9C0B2FFF741
:10376400BDFB04460028C2D13A4E002D7AD10698FA
:103774003460856806F02FFF3749FCF7EBFEA0B1F3
:103784000124B5E7197A032904D8DFE801F0020619
:10379400090C1F6801320C33D5E7D3E90089F9E736
:1037A400D3F800A0F6E71D68F4E755459FD32B4BEB
:1037B4001C602B4BC3F800A03268284D013A2968DD
:1037C40006984A4407F0B1FE002828608FDB06986B
:1037D40007F069FEB9FBF0F303FB10923368D5B22E
:1037E4004B44A9EB0505DFF878900698D9F800104A
:1037F4008B4238BF00225FFA82FA07F054FE012898
:1038040006D9069807F04FFE013818EA000F75D163
:103814002B4642463168069807F01CFE002850D01B
:1038240065E700BF703701204037012006F2000031
:10383400002000203DB8F396402700200DF2000040
:1038440013F2000018F2000020F2000057EF00000D
:103854002FF200003C37012034370120303701209B
:103864002C3701203368AB427FF442AF464B4D44C2
:103874001B689D42A0D93AE7AB45069888BF5FFA1A
:1038840085FB07F017FE4022014618A808F083F9CB
:103894005A46414618A808F073F95B463168069801
:1038A40018AA07F0D7FD00287FF421AF3368D84465
:1038B4005B443360A5EB0B05069807F0F4FD8542E5
:1038C400DAD2BAF1000F1CD13368D9F8002053447E
:1038D4002B44934233607FF40BAF2C4B06981A6849
:1038E400114607F022FE0028FFF64AAF3846D9F801
:1038F4000020069908F05EFC0446F9E64FF0400B00
:10390400DAE7069807F0D6FD0822014618A808F061
:1039140042F9524608EB050118A808F031F9DDF820
:1039240018803168404605EB010B07F0BCFD594691
:10393400034618AA404607F08DFD00287FF4D7AE51
:10394400C2E798B9E379012B3FF431AE052B03D0DC
:10395400002B7FF42BAEBEE6FFF7D4FD4FF40050EE
:10396400002106F0E3F8012007F0E1FB2A46314686
:103974002046074BFCF706FE00287FF4ACAE29B0C6
:10398400BDE8F04FFFF7F8BC2C3701203437012095
:103994004037012001232DE9F34100250646DFF8D5
:1039A400C080304C88F800302F4B304F00951860A1
:1039B40098F8003013B902B0BDE8F0812C4BC5F57E
:1039C4008061C3F80046C3F80446C3F80846C3F848
:1039D4000C46C3F81046C3F81446C3F81846C3F897
:1039E4001C4603F58053C3F80046C3F80446C3F8E5
:1039F4000846C3F80C46C3F81046C3F81446C3F887
:103A04001846C3F81C46336801AA0131781998474F
:103A14000028019B01DC002BCAD005442BB940F2DD
:103A240001439D42C4D10025C2E73B78062B09D14E
:103A34007B78092B0BD1002300936946A81EFFF75E
:103A440021FD04E0042B02D17B78142BF5D001284E
:103A5400E9D1009907480239FFF782FDE3E700BF87
:103A6400FB5F01203546526E74370120FD6301204F
:103A740000800150FE5F012073B504460D4607F037
:103A8400E9FF002868D0354B69460093052320469A
:103A9400019307F0B5FE60B12946204607F091FE78
:103AA40038B100232B72204607F0DBFF012002B05F
:103AB40070BD204607F0D1FF78B1294B69460093C9
:103AC40004232046019307F09BFE30B1294620468B
:103AD40007F093FE08B10123E4E7204607F0BDFF99
:103AE40078B1204B6946009303232046019307F0E5
:103AF40087FE30B12946204607F063FE08B1022351
:103B0400D0E7204607F0A9FF78B10326164B694693
:103B140020460093019607F073FE30B129462046F3
:103B240007F04FFE08B12E72BDE7204607F095FF5F
:103B340078B10E4B6946009303232046019307F0A6
:103B44005FFE30B12946204607F057FE08B1042332
:103B5400A8E7204607F085FF0020A8E70DF2000043
:103B640033F2000038F200002FF200003CF20000B3
:103B74002DE9F0434FF001099DB004AC07460E4611
:103B840090461D4602460B4620460421CDF800907F
:103B940007F06BFF204607F036FE70B10C230521B9
:103BA400CDE901834846114B009408F13C0207F02B
:103BB4004AFE60B9204607F041FE0022099BD868FE
:103BC400DA60904208BF1F201DB0BDE8F083204694
:103BD40007F032FE0028F0D00DB90020F4E7049B72
:103BE400DB1BB34294BF2B602E60F6E77D3A0000E6
:103BF40002464B1E0846D15C51B102280FD9084B2E
:103C04000344012013F8023C9840C0B270472BB122
:103C14001846013BD15C0029F9D0EEE718467047FD
:103C240040F20000F8B505460F4610461946164600
:103C3400FFF7DEFF012804462A68E9681CD13378BF
:103C4400172B04D9931C99421AD3002325E0501C46
:103C5400814215D300248A4212D2511C03F01F035F
:103C6400296043EA471111703444B44218D1AB6857
:103C740001200133AB6007E0431C1344994204D292
:103C8400082200206B69DA60F8BD08B93378E2E7EE
:103C9400831E062BD9D80648C35C1833DBB2DAE797
:103CA4002B685A1C2A6014F8012D1A70DDE700BF36
:103CB40040F20000014910220A60704710ED00E054
:103CC40072B6404080F31188BFF36F8F01B5FDF7E2
:103CD400D1FF002802D0BFF34F8F30BFBDE80140B1
:103CE40062B6BFF36F8F704772B6494081F3118893
:103CF40001B5FDF7BFFF002802D0BFF34F8F20BFEF
:103D0400BDE8014080F3118862B6704740B20028D4
:103D140007DB01234109034A00F01F00834042F8F6
:103D24002130704700E100E040B200280CDB0122A2
:103D34000649430900F01F008240203341F8232044
:103D4400BFF34F8FBFF36F8F704700BF00E100E0F8
:103D5400054B420953F82220012300F01F0003FA07
:103D640000F01040704700BF00E100E040B20028BE
:103D740001F10101ACBF00F16040064B4FEA411173
:103D8400C9B2ABBF00F5614000F00F0080F800132A
:103D94001954704714ED00E030BFFFF7FDBF00BFBA
:103DA4000B4A08B50B4B22F07F029A60BFF34F8F8A
:103DB400BFF36F8FD3F8882022F47002C3F88820F1
:103DC40005F0C2F805F05EFF00F0AAF905F0FCF872
:103DD4000000000000ED00E0094A0A499368096800
:103DE4001867596708494B6843F080534B600023B8
:103DF40083F31188BFF36F8F9368586F704700BFC8
:103E0400E043012060EE000000ED00E013498A6801
:103E14004FF030001044EFF3098C80E8F01F2020AD
:103E240080F31288BFF36F8F0D4F4FF000664A691D
:103E34008A603E60106F0023136780F3118802F1DB
:103E4400300090E8F01F8CF3098802F1000004B5FB
:103E540007F03EFEBDE8044070470000E043012047
:103E640004ED00E01EF0040F0CBFEFF30880EFF345
:103E74000980816911F8021C0229FFD001B507F0FD
:103E840018FE01BD42F8203C009B0B4942F81C3C43
:103E9400019B21F0010142F8183C029B42F8081CE6
:103EA40042F8143C4FF0807342F8043C0023203A5B
:103EB40002650367704700BFFDA70000084B9860C8
:103EC400036E83F30B88104681F30988002163B6DF
:103ED40081F31188BFF36F8F0022002306F08CFC5E
:103EE400E043012001B5EFF30580A0F110004FEA93
:103EF400C0000449014409C99847BDE8014002498A
:103F040008470000C0E60000113F0000044B996818
:103F14005869884203D003494FF080520A607047C1
:103F2400E043012004ED00E0084B9A6A9A6A986A1B
:103F34009A6A9A6A9A6A9A6A9A6AC0F300506FEA0D
:103F440002426FEA124240009A62704700ED00E0BC
:103F54000D4B9A6A9A6A9A6A920507D59A6A12046C
:103F640004D518B19A6A22F400429A6200209A6A2F
:103F74009A6AD205044A58BF9B6A936A43F47F4302
:103F840093620870704700BF00ED00E0124B9A6A1C
:103F94009A6A9A6A920708D55A6B9A6A120604D5E5
:103FA40018B19A6A22F080029A629A6A9A6A9A6AA4
:103FB400D0064FF0000058BF9B6A074B9A6A9206DE
:103FC40042BF5A6A22F400525A629A6A42F0FF02CD
:103FD4009A620870704700BF00ED00E070B5444B72
:103FE40006465B6800258AB0C3F3080385F311888D
:103FF400BFF36F8F02F07F40B0F17F4F11D102F019
:104004000C0008280DD010074CBF0E4601250022D5
:10401400033B8DF80720032B05D8DFE803F01E5C73
:1040240060592E46F3E700249DF807309BB92022FF
:10403400314602A807F0A4FD099B002D53D0C3F319
:10404400080222B96FEA53236FEA432309932046F7
:1040540002A907F02CFD0AB070BD254BDA6A91075E
:10406400E1D4DA6A002ADEDBDA6A5200DBD55A6967
:10407400B16942F480725A61BFF34F8FBFF36F8FFF
:104084005A6931F8021C22F480725A61BFF34F8FCF
:10409400BFF36F8F4DF60272914209D09A6AD2B281
:1040A40042B101200DF10701FFF770FF0446BBE7A1
:1040B4003468B9E79A6A12F47F4F05D001200DF1F4
:1040C4000701FFF745FFF1E79B6AB3F5803FAAD3E9
:1040D400FFF72AFFEAE700200DF10701E4E70020DB
:1040E4000DF10701EDE723F4FF7323F00103ADE7BE
:1040F40000ED00E0044B5A6942F010025A615A691B
:1041040042F480625A61704700ED00E0EFF30880EA
:10411400EFF3098101B57246FFF760FF01BD00BFEF
:10412400002320210348C2180133452B82F80013D1
:10413400F9D1704700E100E0002080F31488BFF358
:104144006F8F002080F30A8880F30B88FDF7DEFD73
:1041540000200E490860BFF34F8F0D4880F3088894
:1041640000F03EF8202080F311880A484FF40061E3
:10417400401880F30988EFF314800221084380F388
:104184001488BFF36F8FFFF70BFE000094ED00E07F
:1041940048A1052008700520BFF34F8F0549064B41
:1041A400CA6802F4E0621343CB60BFF34F8F00BFD1
:1041B400FDE700BF00ED00E00400FA050023184607
:1041C4000649D1F89020C2F30722934200DB7047DE
:1041D400C1F89830C1F8A0000133F6E700ED00E023
:1041E40010B572B6002484F31388FFF7E7FF234663
:1041F4004FF0FF300C4A03F120010133102B42F839
:104204002100F8D100234FF0FF30074A03F1600189
:104214000133102B42F82100F8D162B6BFF34F8F5F
:10422400BFF36F8F10BD00BF00E100E0084B9B6837
:1042340083420BD1EFF3058343B1064B5A6842F036
:1042440080525A605A6A22F400425A6205F0A8BCAD
:10425400E043012000ED00E01FB5094C094A234664
:104264000121094800F0EAF800230393074B0121D8
:10427400E41A01A80193029400F0EAF804B010BD16
:10428400000008200020002024EB0000602400200F
:1042940010B50C7A0B6804F01F0223F01F031A43B5
:1042A400CB68640923F01F03054943EA440343F040
:1042B4000103C1F89800C1F89C20C1F8A03010BDDA
:1042C40000ED00E02DE9F04F0F46144606464FF08E
:1042D40000084E4D85B0B84580F29480D6F804901D
:1042E400B9F1000F36D0B9F11F0F40F2898019F0EF
:1042F4001F0F40F08580D6F800A01AF01F0F7FD161
:10430400504607F0E9FB834609EB0A00013807F041
:10431400E3FB834574D11BF1160F71D05C456FDD4F
:10432400C5F898B0D5F89C10C5F898B0D5F8A03069
:1043340021F01F0143F01F0AD6E900321A449942C2
:1043440002F1FF391ED1CA4508D131465FFA8BF01C
:1043540007F0CBFB08F101080C36BCE73146C5F881
:1043640098B0D5F89C3022F01F0203F01F031343CA
:10437400C5F89C30E0B207F0B8FB10F1160F3FD03F
:10438400441CE7E7C5F898B0D5F8A020013B23F01A
:104394001F0302F01F021343CA453146E0B2C5F8B9
:1043A400A030E8D007F0A1FB10F1160F28D0C5F813
:1043B40098B0D5F89C209DF808300AF1FF3A62F3D2
:1043C40004038DF80830D5F8A0309DF808205B0868
:1043D40063F347128DF80820D6E9003213440093A2
:1043E40023F01F03411C5344A3EB0903C8B223F079
:1043F4001F030728039303D86946FFF749FFBFE764
:104404006FF01504204605B0BDE8F08F00ED00E024
:104414000522044BC3F89420BFF34F8FBFF36F8F73
:10442400704700BF00ED00E0BFF35F8F0022024B36
:10443400C3F89420704700BF00ED00E010B5034CB2
:104444002278FFF73FFF207010BD00BFFE670120F8
:104454002DE9F74F294D8A4606464FF00008AB4632
:10446400274FD0451BDAD6F80490B9F1000F3FD09E
:1044740031680846019107F02FFB0199044609EBC6
:104484000100013807F028FB84424FF014021D4B51
:1044940008D002FB08F36FF015024BF8032003B0B9
:1044A400BDE8F08F14F1160F2C60F8D01978A142F2
:1044B400F5DD02FB08B0C7F89840C7F89840D7F874
:1044C4009C4000F10801007B64F304000871D7F8F4
:1044D400A0000C79400860F347140C71D7F89C10C5
:1044E40021F01F016960D7F8A01021F01F01296194
:1044F40008F1010814350C36B3E700BF7837012002
:1045040000ED00E0FE67012038B50E4D2C68082C44
:1045140015D80020FFF788FF0B4B0C4AC3F8C020C6
:10452400844205D10A4B00201C70FFF771FF38BD8F
:10453400696801EB0011FFF7ABFE0130F0E74FF0C3
:10454400FF30F4E730EB000000ED00E0AAFF440088
:10455400FE6701200CB410B586B009B90DF10B004B
:104564000024CDE9040109AB089A009404A9054884
:104574000393FDF705F9049B1C7006B0BDE81040D9
:1045840002B07047ADBB00000146014809F096BD7A
:10459400482300200149024809F0D6BDB437012060
:1045A400F8240020020600F07F0312D5082B05D161
:1045B400010700F00F0306D50E48704710F0780F7E
:1045C40012D100F00F034C2000EB43100A4B1844A7
:1045D4007047082B05D1020700F00F0306D50748E2
:1045E400704710F0780FF6D000207047044800EBB5
:1045F40043107047D83801208C370120F839012046
:10460400F838012000220023014804F0F9BE00BF5D
:104614004823002010B5054CFFF7F4FF20B1011D1D
:10462400204609F08EFCF7E710BD00BFC822002029
:1046340007B5002300220E4801A904F045FD90B1FE
:10464400FFF7E8FF00220023094801A904F03CFD1C
:1046540038B90423019840600374FFF795FFFFF70E
:1046640099FF002001E00198406003B05DF804FB6D
:10467400C822002010B50446FFF7DAFF60B100221B
:1046840004720274FFF780FF044B93F824301BB1CB
:10469400BDE81040FFF77EBF10BD00BF8C3701207E
:1046A400F8B5877806463846FFF77CFF3B06044694
:1046B400F57812D5002D43D1FFF7BAFF0346002841
:1046C4003ED00122A5770274032202739C60FFF797
:1046D4005BFFBDE8F840FFF75DBF4DB1012D2FD161
:1046E400FFF7A6FF034658B3657705740573EDE736
:1046F400FFF79EFF20B3B278124B12F0800F02F046
:10470400080111D041B1D3F8A836E3600123037442
:10471400022384600373DAE7142102F00F0201FB21
:104724000233D3F80836F0E711B1D3F8A837ECE731
:10473400142102F00F0201FB0233D3F80837E4E737
:10474400F8BD00BF00600350012807B50FD0022850
:104754000ED048B9002200230848CDE9002345F6CD
:104764009A12002305F044FC03B05DF804FB00201A
:1047740003B05DF804EBFFF77DBF00BF58220020B3
:1047840013B5002201213720FFF7F0FA3720FFF795
:10479400BDFA124803F08CFE114B98421AD1002442
:1047A400104803F00BF9104804F052FB4FF0FF33AC
:1047B4004FF480620D490E48009404F08DFF0D49BA
:1047C4000B4809F0EDFB0C480C4909F0A0FC20460D
:1047D40002B010BD6FF00400FAE700BF3D480000CE
:1047E4000000AD0B79F2000058EB0000086C0520C6
:1047F400F82400206EF20000B4370120C149000003
:10480400002310B50B49D1E8EF2F012A03D1C1E8E9
:10481400E03F0028F7D10CD151F8044C143920465C
:1048240006F095FB783004D12046BDE8104006F030
:1048340069BB10BDAC370120F0B5064689B014221F
:10484400002103A807F0A7F93378013B052B21D8F1
:10485400DFE803F07A0314146A16032300248DF8A6
:104864001430FFF7E5FE0346A0B100F1080204741A
:10487400DDE9050182E8030018461DE00423EDE7A5
:10488400B7783846FFF78EFE837A044623B1013B9E
:10489400022B43D909B0F0BD3B06F57813D5002DA2
:1048A400F8D1FFF7C5FE03460028F3D00122A5770F
:1048B4000274032202739C60FFF766FE09B0BDE830
:1048C400F040FFF767BE55B1012DE3D1FFF7B0FE0D
:1048D40003460028DED0657705740573EBE7FFF720
:1048E400A7FE07460028D5D0012303740223846061
:1048F400037304F10C01B07809F09AFA134AE168E1
:10490400B2F88C328B4206D95B1AA2F88C3204F0CE
:1049140005F83846D0E7A2F88C52FAE7304609B0D9
:10492400BDE8F040FFF7BCBE01A803F0D1FF9DF83D
:104934000530052B04D19DF8043013F0600FA9D085
:10494400034B012405938CE702248AE78C3701206A
:10495400F838012038B5002464F07F00C0B2FFF7B6
:1049640021FE013407F02FF9082CF5D100240E4D57
:10497400E0B2FFF717FE036903B90561013407F0DC
:1049840022F9082C05F14005F2D1084807F01BF97B
:10499400074BD3F87C2212B9064AC3F87C22064896
:1049A40007F011F9002038BD1C3E0120D838012041
:1049B4008C3701201C3A0120F83901202DE9F043FD
:1049C4000746AD4CDFF8B48285B0FFF71BFE10B983
:1049D40005B0BDE8F08394F82530027C00F10409A9
:1049E4003BB9002A00F088804946A44809F0A9FA96
:1049F400EBE7042A44D8DFE812F07F000500FE004C
:104A040014012F01037B8568032B39D8DFE803F0F9
:104A1400023F5C616E6908220021304607F0BBF852
:104A2400974B9848D3F880243270D3F8842472705A
:104A3400D3F88824D3F88C1442EA01227280D3F884
:104A44009024D3F8941442EA0122B280D3F8982433
:104A5400D3F89C34314642EA03230822F380EA6007
:104A640007F08EF82B680021687A984796F9003091
:104A7400002B08DBF38833B1A4F88C3203F04EFF2B
:104A840049464046B2E70023A4F88C32F8E76B7F2E
:104A9400002BF5D02B7F002BF2D000264FF0FF32F5
:104AA4006E774FF0FF3378482E7707F0A2F86B69E2
:104AB40001A901936B68CDE90236687A03F03AFDE7
:104AC400714807F098F8DBE701212B68687A98476A
:104AD400D6E7AB7A6BB9EB7F5BB96B484FF0FF322B
:104AE4004FF0FF3307F085F803F04CFF664807F0FA
:104AF40082F802212B68E9E7027A042AC0D8DFE8A9
:104B040002F055031F636F0003F0C8FC054600283C
:104B1400B6D103F06FFC01235C49D1E8EF2F002AE2
:104B240003D1C1E8E03F0028F7D1A9D141F8085CDE
:104B340041F8105CE0691439636106F08BF99FE772
:104B4400002565F07F00C0B2FFF72CFD037A13B196
:104B5400407A04F0F9F80135082DF2D194F8543173
:104B64001BB194F8550104F0EFF80025E8B2FFF703
:104B740019FD037A13B1407A04F0E6F80135082DE3
:104B8400F4D194F874321BB194F8750204F0DCF893
:104B9400012003F065FC012384F825302368002BF1
:104BA4003FF46EAF00210220984769E7002584F89E
:104BB400255004F059F8FFF723FE2368002B3FF437
:104BC4005FAF29460420EFE7002B3FF459AF04F010
:104BD40065F82368002B3FF453AF00210520E3E779
:104BE4002268002A3FF44CAF002B3FF449AF002168
:104BF4000620904744E707F110054FF0FF334FF0CC
:104C0400FF32284606F0F5FFFFF7A4FE284606F01B
:104C1400F2FF57F8283C002B3FF432AF002101206B
:104C2400C2E794F874327BB1012584F8895284F880
:104C34008852FFF7FDFC38B1154A0574057382608C
:104C4400FFF7A2FCFFF7A6FC57F8283C002B3FF423
:104C540017AF00210A20A7E704F0E2F804F004F8F3
:104C640003F0BEFBFFF7D6FCFFF774FE04F0D0F8A8
:104C7400084803F01DFC03E78C370120C8220020FC
:104C84000060035090370120C4370120AC37012065
:104C9400F83901203D48000038B5154D95F82440F9
:104CA40024BB05F1380009F094F9022000F040FB20
:104CB40022460121E8613620FFF758F804F0A8F8ED
:104CC400FFF748FE044610B9012385F82430094B48
:104CD4001B680BB1FFF75EFC074BD3F80034DB070E
:104CE40002D50020FFF730FD204638BD0024FBE745
:104CF4008C370120482300200070035010B54FF07A
:104D0400FF324FF0FF330B4806F073FFFFF782FCCE
:104D140003F0C4FB08B103F0A7FF0024FFF770FD04
:104D240004F07EF8044880F82440383006F063FF2D
:104D3400204610BDC43701208C370120074B93F85F
:104D440024203AB193F82530002B14BF00206FF0D3
:104D5400120070476FF01200704700BF8C370120BB
:104D640038B5104B044693F82430C3B1057828466F
:104D7400FFF718FC10B96FF0150038BD45722379A0
:104D84008372638843602078618810F0080F02D131
:104D94004B1E0B42EFD109F046F80020EDE76FF00F
:104DA4001200EAE78C37012038B5124B054693F818
:104DB4002420CAB193F82530B3B1FFF7F3FB0446BE
:104DC400A8B1837A012B12D007D9023B012B07D952
:104DD40000206369E060A36138BD03F0DBFDF7E701
:104DE400284603F047FDF3E76FF01200F4E76FF095
:104DF4001500F1E78C37012038B50E4B054693F8C2
:104E0400242082B193F825306BB1FFF7CBFB68B156
:104E140015F008040AD1284603F04EFD284603F095
:104E2400E7FF204638BD6FF01200FBE76FF0150076
:104E3400F8E700BF8C37012038B50C4B054693F8D2
:104E440024200C4662B193F825304BB1FFF7AAFB3E
:104E540048B144B1284603F015FD2070002038BD48
:104E64006FF01200FBE76FF01500F8E78C370120B4
:104E740070B5134E044696F82430C3B1FFF792FB85
:104E84000546B8B1230705D4204603F015FD204696
:104E940003F0AEFF2B7A83B901232B7296F82530E9
:104EA4000BB9002070BD204603F04EFFF9E76FF008
:104EB4001200F7E76FF01500F4E76FF07700F1E701
:104EC4008C3701202DE9F043DFF8E4801E4698F882
:104ED400243007468946154685B0002B61D098F8E2
:104EE4002530002B5DD003065ED5FFF75BFB04463F
:104EF400002859D0037A002B56D04FF0FF334FF0DF
:104F0400FF3208F1380006F074FEA37F4BB108F1BC
:104F1400380006F070FE6FF00A04204605B0BDE8C4
:104F2400F083A37AC5B13BB301234FF00008A37704
:104F3400384601A9CDE90195CDF80C8003F0FAFAC1
:104F44001C4B984229D084F81E801EBB6FF00404C9
:104F5400194806F050FEE0E7E27F02B1E577002B46
:104F6400E2D103F01FFDB842DED003F00BFD12487E
:104F740006F041FE0024D0E7B8F80A30AB42F0D97D
:104F84006268B5FBF2F302FB1353002BE9D1012352
:104F9400E377E6E7C6F80080D8E706B13560002479
:104FA400D6E76FF01204B8E76FF01504B5E700BF59
:104FB4008C3701200000AD0BC43701202DE9F041EE
:104FC4001D46204B174693F824200E46002A33D062
:104FD40093F8253083B3030631D401B97FBBFFF7BF
:104FE400E1FA044658B3037A4BB34FF0FF334FF062
:104FF400FF32154806F0FDFDE368B8469F4228BF1E
:10500400984646B93FB905B12B600F4806F0F3FD49
:105014000020BDE8F08142463046A16906F0B0FDAB
:10502400A3694344A361E368A3EB0803E360002D91
:10503400EBD0C5F80080E8E76FF01200E9E76FF005
:105044001500E6E78C370120C437012070B51E4DEA
:10505400034695F8242082B395F825206AB31B06ED
:105064002ED4FFF79FFA044650B3037A43B34FF0AC
:10507400FF334FF0FF3205F1380006F0BAFDE36864
:10508400B3B9012663692677A361637F83B1FFF710
:10509400CFFA30B905F1380006F0ADFD6FF00B0022
:1050A40070BD067484600673FFF76EFAFFF772FA38
:1050B400064806F0A0FD0020F2E76FF01200EFE7CB
:1050C4006FF01500ECE700BF8C370120C4370120D6
:1050D40010B5084B0C4693F824302BB1FFF762FA55
:1050E40028B10460002010BD6FF01200FBE76FF0E0
:1050F4001500F8E78C370120014B1860704700BF9A
:105104008C37012008B5074B93F8243023B1FFF7FF
:1051140049FA20B1406808BD6FF01200FBE76FF058
:105124001500F8E78C370120084B70B5C31A0D46FB
:1051340007499B10044659434022064806F0B9FD2E
:105144002B4601462046BDE87040184730400120F8
:10515400B76DDBB6E8E50000402373B50B4C009354
:10516400041B0B460D460A49A41061430646094A2E
:10517400094806F0CBFD011E05DA30462B4602B085
:10518400BDE87040184702B070BD00BF3040012038
:10519400B76DDBB67DBD0000E8E500002DE9F843FE
:1051A4000022012106460520FEF7E0FD114801F02A
:1051B40097FF114B984219D101F0A2FF00244FF040
:1051C4001C090C27DFF834803569414609FB04507B
:1051D40005F02DFE002807DB012307FB04551C44C2
:1051E400042CAB67F0D10020BDE8F8836FF0040015
:1051F400FAE700BF395200000000AD0B60EB00007D
:1052040001460C2300224B4370B50848C418783378
:105214001844D4E91C56226706F038FD2DB13246F5
:105224002B46BDE870400248184770BD304001204D
:10523400E8E50000052811D8DFE800F0030E10109F
:105244000C0A074B986F10F0070007D1FFF7D8BF7F
:105254000220FBE70320F9E70120F7E7704700BFCE
:105264003040012008B54FF02003EFF3118183F3A0
:105274001288BFF36F8F124A136843F00200106064
:10528400DA0708D481F31188BFF36F8FBDE80840B3
:10529400012008F080BC4FF05023D3F80C24D3F83D
:1052A4000C34D307EED5074806F0F0FC81F31188DF
:1052B400BFF36F8FBDE808400020FFF7A1BF00BF18
:1052C400D0400120A84001201FB500220123CDE9D0
:1052D40002236B46084ACDF800D0CDF804D006F07E
:1052E40044FD002805DB4FF480420023684604F0A7
:1052F400DBF805B05DF804FBB3BD000010B54FF05A
:105304002003EFF3118483F31288BFF36F8F074AEE
:10531400136823F00201DB07116002D4012008F0B6
:1053240099FC84F31188BFF36F8F10BDD040012026
:10533400C3B21C20014A03FB002070473040012007
:105344002DE9F041012207463749D1E8EF3FC1E892
:10535400E02F0028F9D133B9344935484B60CB608C
:105364008A6005F077FD7B1E012B2BD8012F07D116
:105374004FF05023D3F81C3403F00303022B21D045
:1053840008F008FE0546F8B92A4B1B78E3B14FF044
:10539400502302220646C3F808234FF05024DFF8B6
:1053A4009880D4F81834D4F81824D20316D503F00E
:1053B4000303022B01D0012F10D175B386F311889A
:1053C400BFF36F8FBDE8F0814FF02003EFF3118638
:1053D40083F31288BFF36F8F0125DEE7C5B1304632
:1053E400FEF782FCD4F81835DBB2012BD9D1D4F8FE
:1053F4000421002AD5D00022C4F80421D4F80421C1
:105404000222C4F818252022C8F88021A360C8E726
:105414000021212004F08AFBE4E74FF0502302220C
:10542400C3F80423CEE700BF2C4001201C40012018
:105434004C4001200668052000E100E030B54068DA
:1054440001F01F04057BB2F5001F85B044EA451442
:1054540005D1204602F004F9002005B030BD002536
:10546400B2F5800FCDE9025514D1B3F1007F0CBF22
:10547400042305238DF8083000232046194602AA88
:1054840001F02CFF1F4B984238D10121204602F035
:10549400A1F8E1E7B3F1C06F25D0B3F1007F14BFE9
:1054A400012302238DF808308368CB40D907E3D465
:1054B400B2F1A07FE0D1144A14486109012908BF60
:1054C400024604F01F03803352F82330DB07D3D4A1
:1054D4000DF107052946204602F028F80C4B9842A6
:1054E40003D00395C8E70323DCE7284602F06CF8F1
:1054F400044B9842F5D06FF00B00AEE76FF0150047
:10550400ABE700BF0000AD0B002584500028845099
:105514000400AD0B10B502F047F8044668B902F078
:105524001BF8084B98420AD12146074801F0F8FFBE
:10553400224605210D20FEF719FC002010BD6FF056
:105544000400FBE70000AD0B51550000420903467F
:1055540070B502D0012A17D070BD0D4E3269516862
:105564000029F9D0012503F01F030C689D40002990
:10557400F2D08A682A4002D030464B6898472CB152
:10558400236821461C46F2E7024EE7E72346F8E784
:1055940018E6000000E600002DE9FF41476801F02D
:1055A4001F053B7B144645EA43150E4628460DF17C
:1055B400030101F0BBFF14F4403F80460BD12846A1
:1055C40002F076F83C4B984503D19DF8030001F0B6
:1055D400F5FF00200CE000232846194602AACDE975
:1055E400023301F07BFE344B984204D06FF0150077
:1055F40004B0BDE8F081804503D19DF8030001F0BB
:10560400DDFFA30349D540F206332340B3F5837F7E
:1056140019D00CD8062B17D004D8ABB1022BE5D186
:10562400042311E0B3F5807FE0D101230CE040F2C4
:105634000222934226D0B3F5407F25D0B3F5007FF4
:10564400D4D1022300E007238DF8043084F480339E
:10565400C3F30043E0068DF805304CBF0323C4F3C5
:10566400401321038DF8063010D501237A68B34026
:1056740093600022284601A901F0DEFE0E4B9842F9
:10568400A7D0B3E70523DFE70323DDE7620341BFC8
:1056940001237A68B340D360EBE7E3064FF00003DD
:1056A4004CBF0324C4F340141A46284601A98DF8BC
:1056B400044001F013FEE1E70000AD0B38B5456886
:1056C400297C11F0010416D10122297BA86806F077
:1056D400F6FB002810DB6D686DB108494FF40040FB
:1056E4008C462146E5FB00C100236046044AFAF7D4
:1056F4002FFD04F01BFA002038BD00BF3F420F000D
:1057040040420F0000F1744000F5A6000A289ABF39
:10571400024B33F910006FF00F00704708EF0000E0
:10572400024B0B6001231360704700BFB4EC000010
:105734000048704750EC0000054B994206D14FF0E9
:10574400FF324FF0FF33203003F0AEBE704700BF8E
:105754000000AD0B70B5056904460F4E284606F0EF
:10576400F3FB05F1300006F0E7FB33788BB92A46EA
:105774000A49606802F0A8FAFFF7C4FFB0FA80F3A0
:1057840005465B0933702069103006F0D5FB2846C6
:1057940070BD0025F7E700BFFF67012041BF00008F
:1057A40038B50446006906F0CFFB256900220023C2
:1057B40005F1300003F078FEAB6B4BB90A4D02F0F3
:1057C4009DFBA8420AD102F0BBFB0022074B1A70D2
:1057D4002069BDE83840103006F0AEBB002140F22D
:1057E400676004F0A3F9EAE70000AD0BFF6701204E
:1057F4002DE9F04F074688461C46164685B0002A18
:1058040000F09A80002B00F0958000294268C0F2D5
:1058140093809269CB18934200F28E80FFF79AFF2F
:10582400054600287FD1C8F1000505F00305386955
:1058340006F08AFBA54228BF2546734203F0030302
:1058440006F0030958BFC3F10009C9F1000909F0C2
:105854000309A14528BFA146631BA4EB090424F056
:10586400030423F0030AA245C8BFA24603F0030BB6
:10587400C8BFA3EB040BBAF1000F18D006EB090361
:1058840008EB050251461846019308F066FA0446EF
:1058940001463869FFF750FF294A94423BD14D45F0
:1058A40005D0019B52461946701906F052F9BDB154
:1058B400C5F104090421A8EB090202A808F04DFA75
:1058C400044601463869FFF737FF1D4B9C4222D13D
:1058D40009F108032A4630460DEB030106F050F99E
:1058E400BBF1000F16D0082108EB050252440DEB62
:1058F400010008F032FA044601463869FFF71CFF3C
:105904000F4B9C4207D10AEB05005A4602A93044CA
:1059140006F036F90A4C3869103006F00DFB2046C3
:10592400FFF7F0FE05463846FFF73AFF284605B074
:10593400BDE8F08F1D46F9E76FF01505F6E700BFE7
:105944000000AD0B4FF05023022270B5C3F8B82508
:10595400436886B01D6A04460021284603AA06F05F
:1059640002FC00284EDB039B2A681979186800F0B2
:10597400ABFC002846DB002201212B20FEF7F6F9C0
:10598400656822692846334902F09EF9FFF7BAFE9A
:10599400002837DBEB7A023B012B35D9AD7A033D86
:1059A400012D8CBF00250125204606F02BFB002885
:1059B40028DBC2B2C0F38010854201AD26D1204657
:1059C400FFF7EEFE03260023CDE9026304939F2331
:1059D4002046CDF804D08DF80C300595FFF7BAFEBB
:1059E400024688BB204603A906F0BBFA05462046BA
:1059F400FFF7D6FE5DBB6068324669461C3006F090
:105A040098F820BB06B070BD0125CDE7002382F0D5
:105A14004002ADF800308DF800200122204603A991
:105A2400CDE90223CDF804D005938DF80C2004951C
:105A340006F097FA0028E5D1204606F0E3FA00289C
:105A4400E0DBC307F8D4BAE72046FFF7A9FE6FF0FE
:105A54001200D7E741BF00002DE9F84F0D1E06469E
:105A64009046D0F804906ADBD9F81830AA189A4204
:105A740065D8C5F30B02B8F1000F60D0C8F30B036F
:105A840013435CD1FFF766FE044668BB306906F039
:105A940062FA2146304606F0A0FA044608BB306993
:105AA40006F052FADFF89CA0D9F81830434521D10A
:105AB40008F056F9C346074639463069FFF73CFEFD
:105AC40057452CD1B8EB0B085D44EDD1306910304B
:105AD40006F032FA0121304606F07FFA002C08BFA6
